S01000004F4C45445F4558342E73726563C0
S11300000C9438000C9455000C943F020C94550049
S11300100C9455000C9455000C9455000C94550008
S11300200C9455000C9455000C9455000C945500F8
S11300300C9455000C9455000C9455000C945500E8
S11300400C9455000C9455000C9455000C945500D8
S11300500C9455000C9455000C9455000C945500C8
S11300600C9455000C9455000C9455000C945500B8
S113007011241FBECFEFD4E0DEBFCDBF14E0A0E05B
S1130080B1E0EAE5F2E102C005900D92AA33B107AE
S1130090D9F724E0AAE3B4E001C01D92A634B20764
S11300A0E1F70E9460030C942B090C940000833048
S11300B038F084E191E00E94EF0481E090E008953B
S11300C08295807F805D0E94A70321E090E083FFFA
S11300D020E0822F0895CF92DF92EF92FF921F9338
S11300E0CF93DF93CDB7DEB72B970FB6F894DEBF6F
S11300F00FBECDBF6C0110E0812F0E945700892BE9
S113010019F410933A040BC0812F0E945700892BD5
S113011019F0123008F0A1C01F5F133069F7F6011F
S1130120608180913A048295807F8F5C0E94E8030D
S1130130F601618180913A048295807F8E5C0E94F1
S1130140E803F601628180913A048295807F8B5C9A
S11301500E94E803F601428180913A048295807FEF
S1130160B6016D5F7F4F8A5C0E94330480913A042C
S11301708295807F8F5C0E94A703898380913A04D3
S11301808295807F8E5C0E94A7038A8380913A04C3
S11301908295807F8B5C0E94A7038B838B8188234D
S11301A0C9F010E0E12EF12C80913A04212FF0E106
S11301B08F9F200D1124822F8A5C0E94A703E4E004
S11301C0F0E0EC0FFD1FEE0DFF1D80831F5F8B81A0
S11301D0181740F39981F6018081981308C09A8119
S11301E08181981304C09B818281981721F089E44E
S11301F091E00E94EF0480913A04813061F018F09C
S1130200823089F018C048E068E080E30E947103FE
S113021081E090E024C048E068E080E40E9471033B
S113022081E090E01CC048E068E080E50E94710332
S113023081E090E014C048E068E080E30E9471032C
S113024048E068E080E40E94710348E068E080E5EB
S11302500E94710381E090E002C080E090E02B9660
S11302600FB6F894DEBF0FBECDBFDF91CF911F91C3
S1130270FF90EF90DF90CF900895CF92DF92EF92AE
S1130280FF920F931F93CF93DF93CDB7DEB72B97D6
S11302900FB6F894DEBF0FBECDBF6C0189E08B832F
S11302A06230A8F01F926F9385E591E09F938F933E
S11302B00E94D2048BE0FE013196D60101900D928A
S11302C08A95E1F70F900F900F900F9030C0062F92
S11302D00295007F81E6800F0E94A703898382E64E
S11302E0800F0E94A7038A8385E6800F0E94A703DC
S11302F08B838B81882399F010E00A59E12EF12C2D
S1130300802F810F0E94A703E4E0F0E0EC0FFD1FB3
S1130310EE0DFF1D80831F5F8B81181778F38BE030
S1130320FE013196D60101900D928A95E1F7C6013E
S11303302B960FB6F894DEBF0FBECDBFDF91CF91E1
S11303401F910F91FF90EF90DF90CF900895DF926F
S1130350EF92FF920F931F93CF93DF937C01FC01E5
S113036090818181F0E19F9F800D11241F928F93D2
S113037084E991E09F938F930E94D204F701D28085
S11303801F92DF9284EA91E09F938F930E94D2049C
S11303908DB79EB708960FB6F8949EBF0FBE8DBF5B
S11303A0DD20A9F0C0E0D0E00DEB11E0F701EC0F87
S11303B0FD1F83811F928F931F930F930E94D2047A
S11303C021960F900F900F900F90CD1578F38AE03F
S11303D090E00E94E804DF91CF911F910F91FF906C
S11303E0EF90DF900895CF93C82F8A3019F48DE0F1
S11303F00E94F3015D9BFECFCCB980E090E0CF91E9
S1130400089585B7806885BF80B7806280BF84B354
S11304108FEF84BB15BA08958E9A969AB89AB998B4
S113042087B387BB089583B7896183BF08950E940A
S11304306B0485B7886085BF85B78B7F85BF78944B
S11304408BB780688BBF0895CF93C82F8FE190E05E
S11304500E947A0486E091E090933F0480933E04E6
S11304600E9401020E940C020E9417020E941302C1
S11304700E946B048C2F0E94FC03CF9108951F925D
S11304800F920FB60F9211242F933F934F935F93C4
S11304906F937F938F939F93AF93BF93EF93FF9348
S11304A081E080933B0481EC91E00E94EF04FF9192
S11304B0EF91BF91AF919F918F917F916F915F91D8
S11304C04F913F912F910F900FBE0F901F90189551
S11304D01F93CF93DF93CDB7DEB7CD56D1090FB6B7
S11304E0F894DEBF0FBECDBF80E40E94FC038DE014
S11304F0898389E08A8384E08B838B81882371F0EC
S113050080E094E0980FE4E0F0E0EC0FFD1FE80FCA
S1130510F11D90838F5F9B81891798F38FE093E09F
S11305200E94EF04CE0101960E94A7010FC08AE247
S113053093E00E94EF042AE030E005C00197F1F750
S11305402150310919F080E395E7F8CFCE010196E7
S11305500E946B00892B59F382E393E00E94EF041D
S11305602AE030E005C00197F1F72150310919F074
S113057080E395E7F8CF80913B04813011F4109229
S11305803B048CE20E94A703182F1F928F9387E3EA
S113059093E09F938F930E94D20481E2EBE5F3E012
S11305A0DE01579601900D928A95E1F78BE2ECE714
S11305B0F3E0DE01D89601900D928A95E1F70F9051
S11305C00F900F900F901370113019F0123091F1B9
S11305D064C01F921F92CE0147969F938F930E94EF
S11305E0D20460E0CE018D599F4F0E943D018BE003
S11305F0FE01ED59FF4FDE011C9601900D928A9584
S1130600E1F78E850F900F900F900F90893069F469
S11306101F921F92CE01C8969F938F930E94D2047B
S11306200F900F900F900F903CC0CE010C960E943B
S1130630A70137C01F9281E08F93CE0147969F9305
S11306408F930E94D20461E0CE018D599F4F0E9486
S11306503D018BE0FE01ED59FF4FDE011C96019038
S11306600D928A95E1F78E850F900F900F900F9061
S1130670893071F41F9281E08F93CE01C8969F93C5
S11306808F930E94D2040F900F900F900F9009C087
S1130690CE010C960E94A70104C088E493E00E9456
S11306A0EF048AE090E00E94E804C359DF4F0FB6DC
S11306B0F894DEBF0FBECDBFDF91CF911F91089597
S11306C080E40E94240224E630E005C00197F1F79B
S11306D02150310919F080E395E7F8CF0E946802B0
S11306E0F2CF1F93CF93DF93182FD62FC42F0E94DE
S11306F0670485E00E946304812F0E9463048D2FA8
S11307000E9463048C2F0E9463040E946904DF9199
S1130710CF911F910895482F60EE8FE00E947103DE
S113072008950E94670480EC0E9463040E94690497
S11307300895CF930E94670480EA0E9463040E9494
S11307405D04C82F0E9469048C2FCF910895CF9324
S1130750C82F0E94670483E00E9463048C2F0E94C8
S113076063040E945D04C82F0E9469048C2FCF91FA
S11307700895CF9387EC93E00E94EF048EE00E94EB
S1130780A7031F921F92807E1F928F931F921F9226
S113079084ED93E09F938F930E94D2040E94990367
S11307A0C82F8FE00E94A7031F928F931F92CF93AD
S11307B080E094E09F938F930E94D2048DB79EB7FC
S11307C00E960FB6F8949EBF0FBE8DBFCF910895BD
S11307D0CF93DF93D82FC62F0E94670482E00E9434
S11307E063048D2F0E9463048C2F0E9463040E9473
S11307F06904DF91CF910895CF93C82F0E946B04B1
S11308000E9491032AE030E005C00197F1F72150DE
S1130810310919F080E395E7F8CF63E08BE20E9499
S1130820E80340E160E18FE00E94710362EC8AE238
S11308300E94E80369EC89E20E94E80362E088E22E
S11308400E94E8038C2F0E948B038EE00E94A70372
S1130850807EC81731F081E294E00E94EF040E9488
S1130860B903CF910895EF92FF920F931F93CF9303
S1130870DF93C82F7B01142F0E94670482E00E943B
S113088063048C2F0E946304112371F0E70111505B
S1130890012F10E00F5F1F4F0E0D1F1D89910E9445
S11308A06304C017D107D1F70E946904DF91CF9187
S11308B01F910F91FF90EF9008958AEA8FB9779B6B
S11308C0FECF8FB108958FB9779BFECF0895C4985A
S11308D00895C49A089580EB87BB81E58DB90E9481
S11308E0690408955D9BFECF8CB908955F9BFECF8C
S11308F08CB1089590BD89B988E18AB98EE880BD2C
S113090066E774E082E794E00E94870408950F93F9
S11309101F93CF93DF93009731F46115710519F498
S113092080E090E03AC08B01EC016EE070E081E081
S113093090E00E940007FC01892B91F380E88383F7
S11309400115110571F01387028781E88383809173
S11309503C0490913D04892B21F4F0933D04E093F1
S11309603C042097C9F0D187C08783818260838348
S113097080913E0490913F04892B71F4F0933F04DD
S1130980E0933E048091400490914104892B21F42A
S1130990F0934104E0934004CF01DF91CF911F9184
S11309A00F910895A0E0B0E0E8EDF4E00C940409A0
S11309B0AE014B5F5F4FFA0161917191AF0180917C
S11309C03E0490913F040E941F05E2E00C9420092C
S11309D060913E0470913F040E945A0808950F9359
S11309E01F93CF93DF93E0913E04F0913F04238162
S11309F021FF1BC08C01D0E0C0E0F80181918F0180
S1130A0060913E0470913F04DB011896ED91FC91D6
S1130A101997882331F00995892B79F3DFEFCFEF0C
S1130A20ECCF8AE00995892B19F08FEF9FEF02C074
S1130A308D2F9C2FDF91CF911F910F910895ABE0E3
S1130A40B0E0E5E2F5E00C94F4086C017B018A0166
S1130A50FC0117821682838181FFCCC1CE010196ED
S1130A603C01F6019381F70193FD859193FF8191F8
S1130A707F01882309F4BAC1853239F493FD859145
S1130A8093FF81917F01853229F4B60190E00E94A1
S1130A905A08E7CF912C212C312CFFE1F315D8F023
S1130AA08B3279F038F4803279F08332A1F4232D3B
S1130AB020611DC08D3261F0803369F4232D2160E3
S1130AC016C0832D8260382EE32DE4603E2E2AC0AA
S1130AD0F32DF8601DC037FC2DC020ED280F2A30FF
S1130AE040F08E32B9F436FC81C1232D2064322EBD
S1130AF019C036FE06C08AE0989E200D1124922E5D
S1130B0011C0EAE02E9E200D1124222EF32DF06256
S1130B103F2E08C08C3621F4832D8068382E02C005
S1130B20883641F4F70193FD859193FF81917F010C
S1130B308111B3CF982F9F7D9554933028F40C5F87
S1130B401F4F9FE399830DC0833631F0833771F0D3
S1130B50833509F059C021C0F801808189830E5F73
S1130B601F4F88248394912C530113C02801F2E071
S1130B704F0E511CF801A080B18036FE03C0692DD0
S1130B8070E002C06FEF7FEFC5010E944F084C0177
S1130B908201F32DFF773F2E16C0280122E0420E7A
S1130BA0511CF801A080B18036FE03C0692D70E0AD
S1130BB002C06FEF7FEFC5010E943D084C01F32D89
S1130BC0F0683F2E820133FC1BC0822D90E0881612
S1130BD09906B0F4B60180E290E00E945A082A9483
S1130BE0F4CFF50137FC859137FE81915F01B601A1
S1130BF090E00E945A0821102A9421E0821A910858
S1130C008114910471F7E8C0843611F0893641F5F6
S1130C10F80137FE07C060817181828193810C5F86
S1130C201F4F08C060817181072E000C880B990B3F
S1130C300E5F1F4FF32DFF763F2E97FF09C090954F
S1130C408095709561957F4F8F4F9F4FF0683F2E31
S1130C502AE030E0A3010E949608882E861845C039
S1130C60853731F4232D2F7EB22E2AE030E025C0C3
S1130C70932D997FB92E8F36C1F018F4883579F009
S1130C80B5C0803719F0883721F0B0C0E92FE06192
S1130C90BE2EB4FE0DC0FB2DF460BF2E09C034FE81
S1130CA00AC0292F2660B22E06C028E030E005C015
S1130CB020E130E002C020E132E0F801B7FE07C0D5
S1130CC060817181828193810C5F1F4F06C06081B6
S1130CD0718180E090E00E5F1F4FA3010E9496088F
S1130CE0882E8618FB2DFF773F2E36FE0DC0232D50
S1130CF02E7FA22E891458F434FE0BC032FC09C096
S1130D00832D8E7EA82E05C0B82CA32C03C0B82C2E
S1130D1001C0B92CA4FE0FC0FE01E80DF11D8081B5
S1130D20803321F49A2D997EA92E09C0A2FE06C013
S1130D30B394B39404C08A2D867809F0B394A3FCC9
S1130D4011C0A0FE06C0B21488F4280C922C9B1883
S1130D500EC0B21460F4B60180E290E00E945A081A
S1130D60B394F7CFB21418F42B1802C0982C212C8A
S1130D70A4FE10C0B60180E390E00E945A08A2FECF
S1130D8017C0A1FC03C088E790E002C088E590E0AA
S1130D90B6010CC08A2D867859F0A1FE02C08BE200
S1130DA001C080E2A7FC8DE2B60190E00E945A08DF
S1130DB0891438F4B60180E390E00E945A089A94AA
S1130DC0F7CF8A94F301E80DF11D8081B60190E01C
S1130DD00E945A088110F5CF222009F442CEB601B0
S1130DE080E290E00E945A082A94F6CFF6018681A8
S1130DF0978102C08FEF9FEF2B96E2E10C941009CC
S1130E000F931F93CF93DF93869F8001879F100DCD
S1130E10969F100D1124C8010E941C07EC01009735
S1130E2029F0A80160E070E00E944808CE01DF913B
S1130E30CF911F910F9108950F931F93CF93DF9339
S1130E408230910510F482E090E0E0914404F09146
S1130E50450420E030E0A0E0B0E0309719F1408193
S1130E6051810281138148175907C8F084179507E7
S1130E7069F4109731F012960C93129713961C9301
S1130E8027C0009344041093450422C02115310562
S1130E9019F04217530718F49A01BD01EF01DF015D
S1130EA0F801DBCF21153105F9F0281B390B24306B
S1130EB0310580F48A819B816115710521F0FB0164
S1130EC09383828304C09093450480934404FE0179
S1130ED0329644C0FE01E20FF31F81939193225096
S1130EE03109398328833AC0209142043091430464
S1130EF0232B41F4209102013091030130934304E8
S1130F002093420420910001309101012115310503
S1130F1041F42DB73EB74091040150910501241BC3
S1130F20350BE0914204F0914304E217F307A0F477
S1130F302E1B3F0B2817390778F0AC014E5F5F4F2B
S1130F402417350748F04E0F5F1F50934304409316
S1130F5042048193919302C0E0E0F0E0CF01DF917D
S1130F60CF911F910F910895CF93DF93009709F4C8
S1130F7081C0FC01329713821282A0914404B09183
S1130F804504109781F420813181820F931F2091B1
S1130F904204309143042817390751F5F093430470
S1130FA0E093420467C0ED0120E030E0CE17DF0794
S1130FB040F44A815B819E0141155105F1F0EA013B
S1130FC0F5CFD383C28340815181840F951FC81705
S1130FD0D90759F488819981840F951F02969183CA
S1130FE080838A819B81938382832115310529F42F
S1130FF0F0934504E09344043DC0E901FB83EA8394
S113100049915991C40FD51FEC17FD0761F48081F4
S11310109181840F951F0296E901998388838281C7
S113102093819B838A83E0E0F0E012968D919C91FA
S11310301397009719F0FD01DC01F7CF8D919C9176
S113104011979D012E5F3F4F820F931F2091420401
S1131050309143042817390769F4309729F4109222
S113106045041092440402C013821282B0934304D4
S1131070A0934204DF91CF910895FC010590615043
S113108070400110D8F7809590958E0F9F1F08959A
S1131090DC0101C06D9341505040E0F70895FC011C
S11310A06150704001900110D8F7809590958E0F93
S11310B09F1F08950F931F93CF93DF93FB01238109
S11310C021FD03C08FEF9FEF2CC022FF16C0468185
S11310D05781248135814217530744F4A081B1819B
S11310E09D012F5F3F4F318320838C93268137816D
S11310F02F5F3F4F3783268314C08B01EC01FB0124
S11311000084F185E02D0995892BE1F6D801169626
S11311108D919C911797019617969C938E93169791
S1131120CE01DF91CF911F910F910895FA01AA2763
S1131130283051F1203181F1E8946F936E7F6E5F16
S11311407F4F8F4F9F4FAF4FB1E03ED0B4E03CD0C4
S1131150670F781F891F9A1FA11D680F791F8A1FA7
S1131160911DA11D6A0F711D811D911DA11D20D00E
S113117009F468943F912AE0269F11243019305DC8
S11311803193DEF6CF010895462F4770405D4193B9
S1131190B3E00FD0C9F7F6CF462F4F70405D4A3306
S11311A018F0495D31FD4052419302D0A9F7EACFCE
S11311B0B4E0A6959795879577956795BA95C9F7FD
S11311C000976105710508959B01AC010A2E0694F0
S11311D05795479537952795BA95C9F7620F731FA9
S11311E0841F951FA01D08952F923F924F925F92E6
S11311F06F927F928F929F92AF92BF92CF92DF9223
S1131200EF92FF920F931F93CF93DF93CDB7DEB787
S1131210CA1BDB0B0FB6F894DEBF0FBECDBF09941B
S11312202A88398848885F846E847D848C849B8472
S1131230AA84B984C884DF80EE80FD800C811B8180
S1131240AA81B981CE0FD11D0FB6F894DEBF0FBEAF
S10D1250CDBFED010895F894FFCF1F
S113125A0000460420000000000200000000F30120
S113126A0000000043414E5F44726976657220456E
S113127A72726F723A20417474656D707465642079
S113128A746F20636865636B20696E76616C696448
S113129A20747862667221200043414E5F736E6443
S11312AA5F6572720043414E204572726F723A2032
S11312BA526571756573746564207265616420662C
S11312CA726F6D2062756666657220746861742037
S11312DA646F65736E27742065786973743B20257F
S11312EA64200A004D6573736167652049443A2096
S11312FA25640A004D6573736167652064617461CE
S113130A2C2025642062797465733A2000256420B0
S113131A000A4578742E20696E7465727275707449
S113132A206F6E20494E54312100537461727469DE
S113133A6E67205352414D20746573742E2E2E0D00
S113134A00577269746520706861736520657272EA
S113135A6F723A206578745F72616D5B2534645DDF
S113136A203D2025303258202873686F756C64201C
S113137A62652025303258290D0A00526574726953
S113138A6576616C207068617365206572726F722C
S113139A3A206578745F72616D5B2534645D203D23
S11313AA2025303258202873686F756C6420626572
S11313BA2025303258290D0A005352414D207465B4
S11313CA737420636F6D706C6574656420776974D7
S11313DA68200D0A253464206572726F727320695D
S11313EA6E20777269746520706861736520616E16
S11313FA64200D0A253464206572726F7273206941
S113140A6E2072657472696576616C2070686173A6
S113141A650D0A0D0A0053616D706C65642061766E
S113142A6572616765206F726967696E20284A6F01
S113143A79256429203D202564200A0041747465B5
S113144A6D7074696E6720746F20636C65617220B5
S113145A4F4C45442073637265656E2E2E2E0053DD
S113146A656E64696E67206D657373616765206F65
S113147A7665722043414E3A20004661696C757262
S113148A650053656E740043414E494E54463A20F2
S113149A3078253032580A004E6F206D65737361B7
S11314AA676520666C6167732E2E004D65737361E0
S11314BA676520666C616720726563656976656431
S11314CA20666F722052582564210A004D736720E2
S11314DA64617461206C656E6774682039202D20FC
S11314EA696E76616C6964206D65737361676520E2
S11314FA52582564210A005468697320697320616B
S113150A2070726F6F66206F6620636F6E636570FA
S113151A742C2025640A00446961676E6F737469C8
S113152A782E2E0043414E535441543A20307825A4
S113153A303258204D4F44453A20307825303158BE
S113154A20464C4147533A203078253031580A0016
S113155A5244535441543A20307825303258204367
S113156A414E4354524C3A203078253032580A0AB4
S113157A004D4350204572726F723A20496E697465
S10D158A206661696C6564210000AD
S9030000FC
