S01000004F4C45445F4558342E73726563C0
S11300000C9438000C9455000C9457000C94550033
S11300100C9455000C9455000C9455000C94550008
S11300200C9455000C9455000C9455000C945500F8
S11300300C9455000C9455000C9455000C945500E8
S11300400C9455000C9455000C9455000C945500D8
S11300500C9455000C9455000C9455000C945500C8
S11300600C9455000C9455000C9455000C945500B8
S113007011241FBECFEFD4E0DEBFCDBF14E0A0E05B
S1130080B1E0EEE3FFE002C005900D92A631B107A6
S1130090D9F724E0A6E1B4E001C01D92A132B20771
S11300A0E1F70E944F010C949D070C9400001F92ED
S11300B00F920FB60F9211242F933F934F935F9398
S11300C06F937F938F939F93AF93BF93EF93FF931C
S11300D081E0809316048CEF91E00E943F03FF912E
S11300E0EF91BF91AF919F918F917F916F915F91AC
S11300F04F913F912F910F900FBE0F901F90189525
S1130100CF93C82F8A3019F48DE00E9480005D9B44
S1130110FECFCCB980E090E0CF91089585B7806898
S113012085BF80B7806280BF84B38FEF84BB15BA6C
S113013008958E9A969AB89AB99887B387BB08950A
S113014083B7896183BF08950E94250285B78860BB
S113015085BF85B78B7F85BF78948BB780688BBF4D
S11301600895CF93C82F8FE190E00E9434028AE073
S113017091E090931A04809319040E948E000E94C7
S113018099000E94A4000E94A0000E9425028C2FC6
S11301900E94E001CF910895CF92DF92EF92FF92F7
S11301A00F931F93CF93DF938DE092E00E943F0360
S11301B00E94CE027C010E94D302C12CD12C00E00B
S11301C010E0C4E2D2E00E94CE02F601F85E808321
S11301D020812817A9F099279F938F931F922F931B
S11301E0DF92CF92DF93CF930E9429030F5F1F4FBB
S11301F08DB79EB708960FB6F8949EBF0FBE8DBFFD
S11302009FEFC91AD90AC11488E0D806E1F6C701DC
S11302100E94D302C0E0D0E0E12CF12C0F2EFEE5C9
S1130220CF2EF2E0DF2EF02D0E94CE02FE01F85E0A
S113023020812817B1F099279F938F931F922F93B2
S1130240DF93CF93DF92CF920E9429039FEFE91AA5
S1130250F90A8DB79EB708960FB6F8949EBF0FBEE5
S11302608DBF2196C11598E0D907F1F6FF92EF9260
S11302701F930F938CE992E09F938F930E9429031D
S11302800F900F900F900F900F900F90DF91CF91E0
S11302901F910F91FF90EF90DF90CF90089580E031
S11302A00E94B1000E94CC00FDCF1F93CF93DF9337
S11302B0182FD62FC42F0E94210285E00E941D0210
S11302C0812F0E941D028D2F0E941D028C2F0E94DF
S11302D01D020E942302DF91CF911F910895482FA0
S11302E060EE8FE00E94550108950E94210280EC87
S11302F00E941D020E9423020895CF930E942102AE
S113030080EA0E941D020E941702C82F0E94230245
S11303108C2FCF910895CF93C82F0E94210283E0A0
S11303200E941D028C2F0E941D020E941702C82FDA
S11303300E9423028C2FCF910895CF9383EA93E0F8
S11303400E943F038EE00E948B011F921F92807EC9
S11303501F928F931F921F9280EB93E09F938F9332
S11303600E9429030E947D01C82F8FE00E948B0107
S11303701F928F931F92CF938CED93E09F938F9353
S11303800E9429038DB79EB70E960FB6F8949EBFB0
S11303900FBE8DBFCF910895CF93DF93D82FC62F73
S11303A00E94210282E00E941D028D2F0E941D02E4
S11303B08C2F0E941D020E942302DF91CF91089589
S11303C0CF93C82F0E9425020E9475012AE030E0D5
S11303D005C00197F1F72150310919F080E395E741
S11303E0F8CF63E08BE20E94CC0140E160E18FE052
S11303F00E94550162EC8AE20E94CC0169EC89E218
S11304000E94CC0162E088E20E94CC018C2F0E9401
S11304106F018EE00E948B01807EC81731F08DEF52
S113042093E00E943F030E949D01CF9108958AEAC0
S11304308FB9779BFECF8FB108958FB9779BFECF8D
S11304400895C4980895C49A089580EB87BB81E504
S11304508DB90E94230208955D9BFECF8CB9089547
S11304605F9BFECF8CB1089590BD89B988E18AB9AC
S11304708EE880BD60E372E08CE292E00E94DE02CE
S11304800895052E97FB1EF400940E94580257FD10
S113049007D00E94600207FC03D04EF40C9458026B
S11304A050954095309521953F4F4F4F5F4F08959C
S11304B090958095709561957F4F8F4F9F4F0895CC
S11304C0A1E21A2EAA1BBB1BFD010DC0AA1FBB1F54
S11304D0EE1FFF1FA217B307E407F50720F0A21BC6
S11304E0B30BE40BF50B661F771F881F991F1A9433
S11304F069F760957095809590959B01AC01BD015D
S1130500CF0108958F929F92AF92BF92CF92DF92C4
S1130510EF92FF92CF93DF93EC01688179818A8116
S11305209B81611571058105910521F464E279EDE2
S11305308BE597E02DE133EF41E050E00E9441026A
S113054049015A019B01AC01A7EAB1E40E944407A6
S11305506B017C01ACEEB4EFA50194010E9452073B
S1130560DC01CB018C0D9D1DAE1DBF1DB7FF03C06B
S11305700197A109B04888839983AA83BB839F7795
S1130580DF91CF91FF90EF90DF90CF90BF90AF902D
S11305909F908F9008950E948202089580E091E0D8
S11305A00E9482020895A0E0B0E08093000190933D
S11305B00101A0930201B093030108950F931F93C7
S11305C0CF93DF93009731F46115710519F480E03E
S11305D090E03AC08B01EC016EE070E081E090E0C5
S11305E00E945005FC01892B91F380E88383011557
S11305F0110571F01387028781E8838380911704C2
S113060090911804892B21F4F0931804E0931704B3
S11306102097C9F0D187C0878381826083838091CA
S1130620190490911A04892B71F4F0931A04E0933D
S1130630190480911B0490911C04892B21F4F093DC
S11306401C04E0931B04CF01DF91CF911F910F9104
S11306500895A0E0B0E0EFE2F3E00C946707AE0188
S11306604B5F5F4FFA0161917191AF018091190461
S113067090911A040E946F03E2E00C9483070F9395
S11306801F93CF93DF93E0911904F0911A0423810F
S113069021FF1BC08C01D0E0C0E0F80181918F01E3
S11306A06091190470911A04DB011896ED91FC9184
S11306B01997882331F00995892B79F3DFEFCFEF70
S11306C0ECCF8AE00995892B19F08FEF9FEF02C0D8
S11306D08D2F9C2FDF91CF911F910F910895ABE047
S11306E0B0E0E5E7F3E00C9457076C017B018A0165
S11306F0FC0117821682838181FFCCC1CE01019651
S11307003C01F6019381F70193FD859193FF81915B
S11307107F01882309F4BAC1853239F493FD8591A8
S113072093FF81917F01853229F4B60190E00E9404
S1130730AA06E7CF912C212C312CFFE1F315D8F038
S11307408B3279F038F4803279F08332A1F4232D9E
S113075020611DC08D3261F0803369F4232D216046
S113076016C0832D8260382EE32DE4603E2E2AC00D
S1130770F32DF8601DC037FC2DC020ED280F2A3062
S113078040F08E32B9F436FC81C1232D2064322E20
S113079019C036FE06C08AE0989E200D1124922EC0
S11307A011C0EAE02E9E200D1124222EF32DF062BA
S11307B03F2E08C08C3621F4832D8068382E02C069
S11307C0883641F4F70193FD859193FF81917F0170
S11307D08111B3CF982F9F7D9554933028F40C5FEB
S11307E01F4F9FE399830DC0833631F0833771F037
S11307F0833509F059C021C0F801808189830E5FD7
S11308001F4F88248394912C530113C02801F2E0D4
S11308104F0E511CF801A080B18036FE03C0692D33
S113082070E002C06FEF7FEFC5010E949F064C018C
S11308308201F32DFF773F2E16C0280122E0420EDD
S1130840511CF801A080B18036FE03C0692D70E010
S113085002C06FEF7FEFC5010E948D064C01F32D9E
S1130860F0683F2E820133FC1BC0822D90E0881675
S11308709906B0F4B60180E290E00E94AA062A9498
S1130880F4CFF50137FC859137FE81915F01B60104
S113089090E00E94AA0621102A9421E0821A91086D
S11308A08114910471F7E8C0843611F0893641F55A
S11308B0F80137FE07C060817181828193810C5FEA
S11308C01F4F08C060817181072E000C880B990BA3
S11308D00E5F1F4FF32DFF763F2E97FF09C09095B3
S11308E08095709561957F4F8F4F9F4FF0683F2E95
S11308F02AE030E0A3010E94E606882E861845C04F
S1130900853731F4232D2F7EB22E2AE030E025C026
S1130910932D997FB92E8F36C1F018F4883579F06C
S1130920B5C0803719F0883721F0B0C0E92FE061F5
S1130930BE2EB4FE0DC0FB2DF460BF2E09C034FEE4
S11309400AC0292F2660B22E06C028E030E005C078
S113095020E130E002C020E132E0F801B7FE07C038
S113096060817181828193810C5F1F4F06C0608119
S1130970718180E090E00E5F1F4FA3010E94E606A4
S1130980882E8618FB2DFF773F2E36FE0DC0232DB3
S11309902E7FA22E891458F434FE0BC032FC09C0F9
S11309A0832D8E7EA82E05C0B82CA32C03C0B82C92
S11309B001C0B92CA4FE0FC0FE01E80DF11D808119
S11309C0803321F49A2D997EA92E09C0A2FE06C077
S11309D0B394B39404C08A2D867809F0B394A3FC2D
S11309E011C0A0FE06C0B21488F4280C922C9B18E7
S11309F00EC0B21460F4B60180E290E00E94AA0630
S1130A00B394F7CFB21418F42B1802C0982C212CED
S1130A10A4FE10C0B60180E390E00E94AA06A2FEE4
S1130A2017C0A1FC03C088E790E002C088E590E00D
S1130A30B6010CC08A2D867859F0A1FE02C08BE263
S1130A4001C080E2A7FC8DE2B60190E00E94AA06F4
S1130A50891438F4B60180E390E00E94AA069A94BF
S1130A60F7CF8A94F301E80DF11D8081B60190E07F
S1130A700E94AA068110F5CF222009F442CEB601C5
S1130A8080E290E00E94AA062A94F6CFF6018681BD
S1130A90978102C08FEF9FEF2B96E2E10C947307CE
S1130AA00F931F93CF93DF93869F8001879F100D31
S1130AB0969F100D1124C8010E946C05EC0100974B
S1130AC029F0A80160E070E00E949806CE01DF9151
S1130AD0CF911F910F9108950F931F93CF93DF939D
S1130AE08230910510F482E090E0E0911F04F091CF
S1130AF0200420E030E0A0E0B0E0309719F140811C
S1130B0051810281138148175907C8F0841795074A
S1130B1069F4109731F012960C93129713961C9364
S1130B2027C000931F041093200422C0211531050F
S1130B3019F04217530718F49A01BD01EF01DF01C0
S1130B40F801DBCF21153105F9F0281B390B2430CE
S1130B50310580F48A819B816115710521F0FB01C7
S1130B609383828304C09093200480931F04FE0126
S1130B70329644C0FE01E20FF31F819391932250F9
S1130B803109398328833AC020911D0430911E0411
S1130B90232B41F4209106013091070130931E0468
S1130BA020931D0420910401309105012115310584
S1130BB041F42DB73EB74091080150910901241B1F
S1130BC0350BE0911D04F0911E04E217F307A0F425
S1130BD02E1B3F0B2817390778F0AC014E5F5F4F8F
S1130BE02417350748F04E0F5F1F50931E0440939F
S1130BF01D048193919302C0E0E0F0E0CF01DF9106
S1130C00CF911F910F910895CF93DF93009709F42B
S1130C1081C0FC01329713821282A0911F04B0910B
S1130C202004109781F420813181820F931F209139
S1130C301D0430911E042817390751F5F0931E0442
S1130C40E0931D0467C0ED0120E030E0CE17DF071C
S1130C5040F44A815B819E0141155105F1F0EA019E
S1130C60F5CFD383C28340815181840F951FC81768
S1130C70D90759F488819981840F951F029691832D
S1130C8080838A819B81938382832115310529F492
S1130C90F0932004E0931F043DC0E901FB83EA8341
S1130CA049915991C40FD51FEC17FD0761F4808158
S1130CB09181840F951F0296E9019983888382812B
S1130CC093819B838A83E0E0F0E012968D919C915E
S1130CD01397009719F0FD01DC01F7CF8D919C91DA
S1130CE011979D012E5F3F4F820F931F20911D048A
S1130CF030911E042817390769F4309729F41092AB
S1130D00200410921F0402C013821282B0931E04A6
S1130D10A0931D04DF91CF910895FC0105906150CB
S1130D2070400110D8F7809590958E0F9F1F0895FD
S1130D30DC0101C06D9341505040E0F70895FC017F
S1130D406150704001900110D8F7809590958E0FF6
S1130D509F1F08950F931F93CF93DF93FB0123816C
S1130D6021FD03C08FEF9FEF2CC022FF16C04681E8
S1130D705781248135814217530744F4A081B181FE
S1130D809D012F5F3F4F318320838C9326813781D0
S1130D902F5F3F4F3783268314C08B01EC01FB0187
S1130DA00084F185E02D0995892BE1F6D80116968A
S1130DB08D919C911797019617969C938E931697F5
S1130DC0CE01DF91CF911F910F910895FA01AA27C7
S1130DD0283051F1203181F1E8946F936E7F6E5F7A
S1130DE07F4F8F4F9F4FAF4FB1E03ED0B4E03CD028
S1130DF0670F781F891F9A1FA11D680F791F8A1F0B
S1130E00911DA11D6A0F711D811D911DA11D20D071
S1130E1009F468943F912AE0269F11243019305D2B
S1130E203193DEF6CF010895462F4770405D41931C
S1130E30B3E00FD0C9F7F6CF462F4F70405D4A3369
S1130E4018F0495D31FD4052419302D0A9F7EACF31
S1130E50B4E0A6959795879577956795BA95C9F760
S1130E6000976105710508959B01AC010A2E069453
S1130E705795479537952795BA95C9F7620F731F0C
S1130E80841F951FA01D08950E948E07A59F900D95
S1130E90B49F900DA49F800D911D11240895B7FF58
S1130EA00C9444070E944407821B930B08952F92CD
S1130EB03F924F925F926F927F928F929F92AF92E6
S1130EC0BF92CF92DF92EF92FF920F931F93CF9333
S1130ED0DF93CDB7DEB7CA1BDB0B0FB6F894DEBFCA
S1130EE00FBECDBF09942A88398848885F846E84F0
S1130EF07D848C849B84AA84B984C884DF80EE803A
S1130F00FD800C811B81AA81B981CE0FD11D0FB642
S1130F10F894DEBF0FBECDBFED010895A29FB001CE
S1130F20B39FC001A39F700D811D1124911DB29F19
S1110F30700D811D1124911D0895F894FFCFBA
S1130F3E0100000000002104200000000002000057
S1130F4E000080000000000043414E5F4472697649
S1130F5E6572204572726F723A20417474656D70B9
S1130F6E74656420746F20636865636B20696E76A4
S1130F7E616C69642074786266722120004E6F2061
S1130F8E766163616E7420545842460043414E5F4D
S1130F9E736E645F657272004354524C3A2025643A
S1130FAE0A00496E76616C6964206266667220720C
S1130FBE6561643B202564200A0043414E494E542A
S1130FCE463A203078253032580A004E6F206D6133
S1130FDE696C20666F756E642E2E004D61696C20EF
S1130FEE696E2052582564210A0043414E207265D1
S1130FFE6164206661696C2052582564210A004D93
S113100E6573736167652049443A2025640A004D6F
S113101E65737361676520646174612C2025642097
S113102E62797465733A2000256420000A45584994
S113103E4E5431210053434D3A00524600537461CD
S113104E7274696E67205352414D20746573742E09
S113105E2E2E0D00577269746520706861736520B9
S113106E6572726F723A206578745F72616D5B257A
S113107E34645D203D2025303258202873686F7506
S113108E6C642062652025303258290D0A005265A1
S113109E7472696576616C2070686173652065721F
S11310AE726F723A206578745F72616D5B25346479
S11310BE5D203D2025303258202873686F756C648E
S11310CE2062652025303258290D0A005352414DB5
S11310DE207465737420636F6D706C657465642021
S11310EE77697468200D0A253464206572726F72F4
S11310FE7320696E207772697465207068617365F8
S113110E20616E64200D0A253464206572726F723C
S113111E7320696E2072657472696576616C2070D5
S113112E686173650D0A0D0A0053616D706C656418
S113113E2061766572616765206F726967696E20DA
S113114E284A6F79256429203D202564200A004110
S113115E7474656D7074696E6720746F20636C654A
S113116E6172204F4C45442073637265656E2E2E5A
S113117E2E0043414E2073656E643A2000455F5342
S113118E460053656E74004E6F206D736720666C57
S113119E616773004D736720666C616720726563C7
S11311AE656976656420666F722052582564210A3B
S11311BE004D73672064617461206C656E6774689A
S11311CE20392C2052582564210A00536F64206F55
S11311DE666600446961676E6F737469782E2E00BB
S11311EE43414E535441543A2030782530325820DE
S11311FE4D4F44453A2030782530315820464C41E5
S113120E47533A203078253031580A00524453540B
S113121E41543A203078253032582043414E4354BD
S113122E524C3A203078253032580A0A004D435039
S113123E204572726F723A20496E69742066616934
S109124E6C656421000040
S9030000FC
