:100000000C9438000C9442000C9442000C94420072
:100010000C9442000C9442000C9442000C94420058
:100020000C9442000C9442000C9442000C94420048
:100030000C9442000C9442000C9442000C94420038
:100040000C9442000C9442000C9442000C94420028
:100050000C9442000C9442000C9442000C94420018
:100060000C9442000C9442000C9442000C94420008
:1000700011241FBECFEFD4E0DEBFCDBF0E944700EA
:100080000C9457000C940000B89AC09A08950E94EE
:10009000440041E088B3842788BB2AE030E080E652
:1000A0009AEE0197F1F721503109C9F7F3CFF8948F
:0200B000FFCF80
:00000001FF
