:100000000C9438000C9455000C9455000C94550039
:100010000C9455000C9455000C9455000C9455000C
:100020000C9455000C9455000C9455000C945500FC
:100030000C9455000C9455000C9455000C945500EC
:100040000C9455000C9455000C9455000C945500DC
:100050000C9455000C9455000C9455000C945500CC
:100060000C9455000C9455000C9455000C945500BC
:1000700011241FBECFEFD4E0DEBFCDBF13E0A0E060
:10008000B1E0E0E3FEE002C005900D92AC33B107B1
:10009000D9F723E0ACE3B3E001C01D92A634B20768
:1000A000E1F70E945A010C9416070C940000CF93BC
:1000B000C82F8A3019F48DE00E9457005D9BFECF57
:1000C000CCB980E090E0CF91089585B7806885BF76
:1000D00080B7806280BF84B38FEF84BB15BA089568
:1000E0000E9498018BB780688BBF08958E9A969A6C
:1000F000B89AB99887B387BB089583B7896183BFDE
:100100000895EF92FF920F931F93CF93DF93C0E078
:10011000D0E00F2EF0EDEF2EF1E0FF2EF02D02EEED
:1001200011E08C2F0E949F01DF93CF93FF92EF92FB
:100130000E9461020E949D011F928F931F930F9353
:100140000E94610221968DB79EB708960FB6F8946B
:100150009EBF0FBE8DBFCA30D10519F7DF91CF9179
:100160001F910F91FF90EF9008950E94A10180EAE6
:100170000E949F010E949D011F928F938EEF91E03C
:100180009F938F930E9461020E949D011F928F9303
:1001900086E192E09F938F930E9461028DB79EB794
:1001A00008960FB6F8949EBF0FBE8DBF0895CF92EC
:1001B000DF92EF92FF920F931F93CF93DF938BE227
:1001C00092E00E9477020E9406027C010E940B02CC
:1001D000C12CD12C00E010E0C2E4D2E00E94060263
:1001E000F601F85E808320812817A9F099279F9354
:1001F0008F931F922F93DF92CF92DF93CF930E9422
:1002000061020F5F1F4F8DB79EB708960FB6F89427
:100210009EBF0FBE8DBF9FEFC91AD90AC11488E0D7
:10022000D806E1F6C7010E940B02C0E0D0E0E12C45
:10023000F12C0F2EFCE7CF2EF2E0DF2EF02D0E94E6
:100240000602FE01F85E20812817B1F099279F93DE
:100250008F931F922F93DF93CF93DF92CF920E94C1
:1002600061029FEFE91AF90A8DB79EB708960FB69B
:10027000F8949EBF0FBE8DBF2196C11598E0D90797
:10028000F1F6FF92EF921F930F938AEB92E09F9308
:100290008F930E9461020F900F900F900F900F901C
:1002A0000F90DF91CF911F910F91FF90EF90DF9012
:1002B000CF9008958FE190E00E94AD018AE091E037
:1002C00090933F0380933E0387E193E00E9477027F
:1002D0000E9465000E9476000E9470000E947D00CE
:1002E00087E293E00E9477020E94D7000E94870174
:1002F0000E94B5000E9481002AE030E005C001970D
:10030000F1F721503109B1F380E395E7F8CF0E946E
:10031000A10185E00E949F018FE00E949F0180EE75
:100320000E949F0180E40E949F010E94A301089502
:1003300080EA87BB81E58DB908958FB108958FB9A3
:100340000895C4980895C49A08955D9BFECF8CB912
:1003500008955F9BFECF8CB1089590BD89B988E167
:100360008AB98EE880BD69EA71E085EA91E00E9471
:10037000160208958F929F92AF92BF92CF92DF9212
:10038000EF92FF92CF93DF93EC01688179818A81AC
:100390009B81611571058105910521F464E279ED78
:1003A0008BE597E02DE133EF41E050E00E947C06C1
:1003B00049015A019B01AC01A7EAB1E40E949B06E6
:1003C0006B017C01ACEEB4EFA50194010E94A9067B
:1003D000DC01CB018C0D9D1DAE1DBF1DB7FF03C001
:1003E0000197A109B04888839983AA83BB839F772B
:1003F000DF91CF91FF90EF90DF90CF90BF90AF90C3
:100400009F908F9008950E94BA01089580E091E036
:100410000E94BA010895A0E0B0E08093000190939B
:100420000101A0930201B093030108950F931F935C
:10043000CF93DF93009731F46115710519F480E0D3
:1004400090E03AC08B01EC016EE070E081E090E05A
:100450000E948804FC01892B91F380E883830115B5
:10046000110571F01387028781E8838380913C0333
:1004700090913D03892B21F4F0933D03E0933C03DD
:100480002097C9F0D187C087838182608383809160
:100490003E0390913F03892B71F4F0933F03E09367
:1004A0003E038091400390914103892B21F4F09306
:1004B0004103E0934003CF01DF91CF911F910F9152
:1004C0000895A0E0B0E0E7E6F2E00C94BE06AE01CD
:1004D0004B5F5F4FFA0161917191AF0180913E03D3
:1004E00090913F030E94A702E2E00C94DA060F937A
:1004F0001F93CF93DF93E0913E03F0913F0323815D
:1005000021FF1BC08C01D0E0C0E0F80181918F0178
:1005100060913E0370913F03DB011896ED91FC91D1
:100520001997882331F00995892B79F3DFEFCFEF05
:10053000ECCF8AE00995892B19F08FEF9FEF02C06D
:100540008D2F9C2FDF91CF911F910F910895ABE0DC
:10055000B0E0EDEAF2E00C94AE066C017B018A019A
:10056000FC0117821682838181FFCCC1CE010196E6
:100570003C01F6019381F70193FD859193FF8191F1
:100580007F01882309F4BAC1853239F493FD85913E
:1005900093FF81917F01853229F4B60190E00E949A
:1005A000E205E7CF912C212C312CFFE1F315D8F097
:1005B0008B3279F038F4803279F08332A1F4232D34
:1005C00020611DC08D3261F0803369F4232D2160DC
:1005D00016C0832D8260382EE32DE4603E2E2AC0A3
:1005E000F32DF8601DC037FC2DC020ED280F2A30F8
:1005F00040F08E32B9F436FC81C1232D2064322EB6
:1006000019C036FE06C08AE0989E200D1124922E55
:1006100011C0EAE02E9E200D1124222EF32DF0624F
:100620003F2E08C08C3621F4832D8068382E02C0FE
:10063000883641F4F70193FD859193FF81917F0105
:100640008111B3CF982F9F7D9554933028F40C5F80
:100650001F4F9FE399830DC0833631F0833771F0CC
:10066000833509F059C021C0F801808189830E5F6C
:100670001F4F88248394912C530113C02801F2E06A
:100680004F0E511CF801A080B18036FE03C0692DC9
:1006900070E002C06FEF7FEFC5010E94D7054C01EB
:1006A0008201F32DFF773F2E16C0280122E0420E73
:1006B000511CF801A080B18036FE03C0692D70E0A6
:1006C00002C06FEF7FEFC5010E94C5054C01F32DFD
:1006D000F0683F2E820133FC1BC0822D90E088160B
:1006E0009906B0F4B60180E290E00E94E2052A94F7
:1006F000F4CFF50137FC859137FE81915F01B6019A
:1007000090E00E94E20521102A9421E0821A9108CB
:100710008114910471F7E8C0843611F0893641F5EF
:10072000F80137FE07C060817181828193810C5F7F
:100730001F4F08C060817181072E000C880B990B38
:100740000E5F1F4FF32DFF763F2E97FF09C0909548
:100750008095709561957F4F8F4F9F4FF0683F2E2A
:100760002AE030E0A3010E941E06882E861845C0AC
:10077000853731F4232D2F7EB22E2AE030E025C0BC
:10078000932D997FB92E8F36C1F018F4883579F002
:10079000B5C0803719F0883721F0B0C0E92FE0618B
:1007A000BE2EB4FE0DC0FB2DF460BF2E09C034FE7A
:1007B0000AC0292F2660B22E06C028E030E005C00E
:1007C00020E130E002C020E132E0F801B7FE07C0CE
:1007D00060817181828193810C5F1F4F06C06081AF
:1007E000718180E090E00E5F1F4FA3010E941E0602
:1007F000882E8618FB2DFF773F2E36FE0DC0232D49
:100800002E7FA22E891458F434FE0BC032FC09C08E
:10081000832D8E7EA82E05C0B82CA32C03C0B82C27
:1008200001C0B92CA4FE0FC0FE01E80DF11D8081AE
:10083000803321F49A2D997EA92E09C0A2FE06C00C
:10084000B394B39404C08A2D867809F0B394A3FCC2
:1008500011C0A0FE06C0B21488F4280C922C9B187C
:100860000EC0B21460F4B60180E290E00E94E2058E
:10087000B394F7CFB21418F42B1802C0982C212C83
:10088000A4FE10C0B60180E390E00E94E205A2FE43
:1008900017C0A1FC03C088E790E002C088E590E0A3
:1008A000B6010CC08A2D867859F0A1FE02C08BE2F9
:1008B00001C080E2A7FC8DE2B60190E00E94E20553
:1008C000891438F4B60180E390E00E94E2059A941E
:1008D000F7CF8A94F301E80DF11D8081B60190E015
:1008E0000E94E2058110F5CF222009F442CEB60124
:1008F00080E290E00E94E2052A94F6CFF60186811C
:10090000978102C08FEF9FEF2B96E2E10C94CA060D
:100910000F931F93CF93DF93869F8001879F100DC6
:10092000969F100D1124C8010E94A404EC010097A9
:1009300029F0A80160E070E00E94D005CE01DF91AF
:10094000CF911F910F9108950F931F93CF93DF9332
:100950008230910510F482E090E0E0914403F09140
:10096000450320E030E0A0E0B0E0309719F140818D
:1009700051810281138148175907C8F084179507E0
:1009800069F4109731F012960C93129713961C93FA
:1009900027C0009344031093450322C0211531055D
:1009A00019F04217530718F49A01BD01EF01DF0156
:1009B000F801DBCF21153105F9F0281B390B243064
:1009C000310580F48A819B816115710521F0FB015D
:1009D0009383828304C09093450380934403FE0174
:1009E000329644C0FE01E20FF31F8193919322508F
:1009F0003109398328833AC020914203309143035F
:100A0000232B41F4209106013091070130934303D9
:100A100020934203209104013091050121153105F5
:100A200041F42DB73EB74091080150910901241BB4
:100A3000350BE0914203F0914303E217F307A0F472
:100A40002E1B3F0B2817390778F0AC014E5F5F4F24
:100A50002417350748F04E0F5F1F50934303409310
:100A600042038193919302C0E0E0F0E0CF01DF9177
:100A7000CF911F910F910895CF93DF93009709F4C1
:100A800081C0FC01329713821282A0914403B0917D
:100A90004503109781F420813181820F931F2091AB
:100AA0004203309143032817390751F5F09343036C
:100AB000E093420367C0ED0120E030E0CE17DF078E
:100AC00040F44A815B819E0141155105F1F0EA0134
:100AD000F5CFD383C28340815181840F951FC817FE
:100AE000D90759F488819981840F951F02969183C3
:100AF00080838A819B81938382832115310529F428
:100B0000F0934503E09344033DC0E901FB83EA838E
:100B100049915991C40FD51FEC17FD0761F48081ED
:100B20009181840F951F0296E901998388838281C0
:100B300093819B838A83E0E0F0E012968D919C91F3
:100B40001397009719F0FD01DC01F7CF8D919C916F
:100B500011979D012E5F3F4F820F931F20914203FB
:100B6000309143032817390769F4309729F410921C
:100B700045031092440302C013821282B0934303D0
:100B8000A0934203DF91CF910895FC01059061503D
:100B900070400110D8F7809590958E0F9F1F089593
:100BA000DC0101C06D9341505040E0F70895FC0115
:100BB0006150704001900110D8F7809590958E0F8C
:100BC0009F1F08950F931F93CF93DF93FB01238102
:100BD00021FD03C08FEF9FEF2CC022FF16C046817E
:100BE0005781248135814217530744F4A081B18194
:100BF0009D012F5F3F4F318320838C932681378166
:100C00002F5F3F4F3783268314C08B01EC01FB011C
:100C10000084F185E02D0995892BE1F6D80116961F
:100C20008D919C911797019617969C938E9316978A
:100C3000CE01DF91CF911F910F910895FA01AA275C
:100C4000283051F1203181F1E8946F936E7F6E5F0F
:100C50007F4F8F4F9F4FAF4FB1E03ED0B4E03CD0BD
:100C6000670F781F891F9A1FA11D680F791F8A1FA0
:100C7000911DA11D6A0F711D811D911DA11D20D007
:100C800009F468943F912AE0269F11243019305DC1
:100C90003193DEF6CF010895462F4770405D4193B2
:100CA000B3E00FD0C9F7F6CF462F4F70405D4A33FF
:100CB00018F0495D31FD4052419302D0A9F7EACFC7
:100CC000B4E0A6959795879577956795BA95C9F7F6
:100CD00000976105710508959B01AC010A2E0694E9
:100CE0005795479537952795BA95C9F7620F731FA2
:100CF000841F951FA01D0895052E97FB1EF40094D8
:100D00000E94930657FD07D00E94E50607FC03D01A
:100D10004EF40C94930650954095309521953F4F95
:100D20004F4F5F4F089590958095709561957F4FD7
:100D30008F4F9F4F08950E940707A59F900DB49F66
:100D4000900DA49F800D911D11240895B7FF0C9460
:100D50009B060E949B06821B930B08952F923F9245
:100D60004F925F926F927F928F929F92AF92BF92BB
:100D7000CF92DF92EF92FF920F931F93CF93DF9367
:100D8000CDB7DEB7CA1BDB0B0FB6F894DEBF0FBEC4
:100D9000CDBF09942A88398848885F846E847D8411
:100DA0008C849B84AA84B984C884DF80EE80FD8013
:100DB0000C811B81AA81B981CE0FD11D0FB6F89489
:100DC000DEBF0FBECDBFED010895A1E21A2EAA1B12
:100DD000BB1BFD010DC0AA1FBB1FEE1FFF1FA217EB
:100DE000B307E407F50720F0A21BB30BE40BF50BE8
:100DF000661F771F881F991F1A9469F76095709571
:100E0000809590959B01AC01BD01CF010895A29FF3
:100E1000B001B39FC001A39F700D811D1124911DCE
:100E2000B29F700D811D1124911D0895F894FFCF7C
:100E30000100000000004603200000000002000046
:100E4000000057000000000053616D706C65642065
:100E500076616C7565206368616E6E656C2030200C
:100E6000284A6F793129203D202564200A005361EA
:100E70006D706C65642076616C7565206368616E69
:100E80006E656C203120284A6F793229203D20255B
:100E900064200A0053616D706C65642076616C7526
:100EA00065206368616E6E656C20322028536C6922
:100EB0004C29203D202564200A0053616D706C652B
:100EC000642076616C7565206368616E6E656C2068
:100ED000332028536C695229203D202564200A00C4
:100EE000526573746172742066726F6D20746865E8
:100EF000206669727374206368616E6E656C200091
:100F000053656E74202564206F76657220535049B6
:100F10000A005265636569766564202564206672FF
:100F20006F6D2053504920736C6176650A00496DDE
:100F30006D65646961746520726563656976653A9B
:100F4000202564200A005365636F6E642072656318
:100F5000656976653A202564200A005374617274CD
:100F6000696E67205352414D20746573742E2E2E86
:100F70000D00577269746520706861736520657231
:100F8000726F723A206578745F72616D5B253464AC
:100F90005D203D2025303258202873686F756C64C1
:100FA0002062652025303258290D0A00526574727E
:100FB000696576616C207068617365206572726F17
:100FC000723A206578745F72616D5B2534645D20D0
:100FD0003D2025303258202873686F756C6420627C
:100FE000652025303258290D0A005352414D207496
:100FF00065737420636F6D706C65746564207769C8
:101000007468200D0A253464206572726F72732033
:10101000696E2077726974652070686173652061FC
:101020006E64200D0A253464206572726F7273201D
:10103000696E2072657472696576616C2070686192
:1010400073650D0A0D0A0050726F6772616D20732F
:1010500074617274656400584D454D20496E697421
:0C10600020636F6D706C657465640000A7
:00000001FF
