:100000000C9438000C9455000C947A000C94550014
:100010000C9455000C9455000C9455000C9455000C
:100020000C9455000C9455000C9455000C945500FC
:100030000C9455000C9455000C9455000C945500EC
:100040000C9455000C9455000C9455000C945500DC
:100050000C9455000C9455000C9455000C945500CC
:100060000C9455000C9455000C9455000C945500BC
:1000700011241FBECFEFD4E0DEBFCDBF13E0A0E060
:10008000B1E0E4EBFEE002C005900D92A436B107AA
:10009000D9F723E0A4E6B3E001C01D92AF36B20762
:1000A000E1F70E9487010C9458070C940000CF934D
:1000B000C82F8A3019F48DE00E9457005D9BFECF57
:1000C000CCB980E090E0CF91089585B7806885BF76
:1000D00080B7806280BF84B38FEF84BB15BA089568
:1000E0000E94D90185B78C6085BF78948BB78068F2
:1000F0008BBF08951F920F920FB60F9211248F930A
:1001000081E0809364038F910F900FBE0F901F903A
:1001100018958E9A969AB89AB99887B387BB08951E
:1001200083B7896183BF08950F931F93CF93DF93A4
:100130000E94D5018EEF91E00E94B90280EA0E94F0
:10014000D3010E94D10180FD03C0D0E310E002C0C2
:10015000D1E310E081FD03C0B0E3C0E002C0B1E331
:10016000C0E082FD03C0F0E3A0E002C0F1E3A0E044
:1001700083FD03C070E3E0E002C071E3E0E084FDD2
:1001800003C050E360E002C051E360E085FD03C0BE
:1001900030E340E002C031E340E086FD03C090E37D
:1001A00020E002C091E320E088231CF080E300E01F
:1001B00002C081E300E01F93DF93CF93BF93AF931F
:1001C000FF93EF937F936F935F934F933F932F939F
:1001D0009F930F938F9385E292E09F938F930E945A
:1001E0009C028AE090E00E94B2020E94D7018DB783
:1001F0009EB742960FB6F8949EBF0FBE8DBFDF919B
:10020000CF911F910F910895CF92DF92EF92FF92BD
:100210000F931F93CF93DF9380E492E00E94B90283
:100220000E9441027C010E944602C12CD12C00E0B8
:1002300010E0C7E5D2E00E944102F601F85E80833B
:1002400020812817A9F099279F938F931F922F93AE
:10025000DF92CF92DF93CF930E949C020F5F1F4FDC
:100260008DB79EB708960FB6F8949EBF0FBE8DBF90
:100270009FEFC91AD90AC11488E0D806E1F6C70170
:100280000E944602C0E0D0E0E12CF12C0F2EF1E9F3
:10029000CF2EF2E0DF2EF02D0E944102FE01F85E2B
:1002A00020812817B1F099279F938F931F922F9346
:1002B000DF93CF93DF92CF920E949C029FEFE91AC7
:1002C000F90A8DB79EB708960FB6F8949EBF0FBE79
:1002D0008DBF2196C11598E0D907F1F6FF92EF92F4
:1002E0001F930F938FEC92E09F938F930E949C0239
:1002F0000F900F900F900F900F900F90DF91CF9174
:100300001F910F91FF90EF90DF90CF900895CF93C2
:100310008FE190E00E94E8018AE091E09093680309
:10032000809367038CE293E00E94B9020E9465000B
:100330000E9489000E9470000E9490008CE393E06C
:100340000E94B9020E94D90180E593E00E94B9029F
:100350000E9404010E94C001C8E00E9494002AE0AB
:1003600030E005C00197F1F72150310919F080E321
:1003700095E7F8CFC15089F780E090E0CF910895DC
:100380000E94D50185E00E94D3018FE00E94D30135
:1003900080EE0E94D30180E40E94D3010E94D70125
:1003A00008958FB108958FB90895C4980895C49A97
:1003B000089580EA87BB81E58DB90E94D701089531
:1003C0005D9BFECF8CB908955F9BFECF8CB10895E5
:1003D00090BD89B988E18AB98EE880BD64EE71E08C
:1003E00080EE91E00E94510208958F929F92AF9209
:1003F000BF92CF92DF92EF92FF92CF93DF93EC0107
:10040000688179818A819B816115710581059105DA
:1004100021F464E279ED8BE597E02DE133EF41E0E3
:1004200050E00E94BE0649015A019B01AC01A7EAB7
:10043000B1E40E94DD066B017C01ACEEB4EFA501D6
:1004400094010E94EB06DC01CB018C0D9D1DAE1DBD
:10045000BF1DB7FF03C00197A109B04888839983E6
:10046000AA83BB839F77DF91CF91FF90EF90DF90BE
:10047000CF90BF90AF909F908F9008950E94F5010C
:10048000089580E091E00E94F5010895A0E0B0E0B9
:100490008093000190930101A0930201B0930301A6
:1004A00008950F931F93CF93DF93009731F4611555
:1004B000710519F480E090E03AC08B01EC016EE028
:1004C00070E081E090E00E94CA04FC01892B91F366
:1004D00080E883830115110571F01387028781E895
:1004E00083838091650390916603892B21F4F093B7
:1004F0006603E09365032097C9F0D187C0878381A5
:10050000826083838091670390916803892B71F4E3
:10051000F0936803E09367038091690390916A0305
:10052000892B21F4F0936A03E0936903CF01DF91F3
:10053000CF911F910F910895A0E0B0E0E2EAF2E0C0
:100540000C940007AE014B5F5F4FFA01619171910E
:10055000AF0180916703909168030E94E902E2E095
:100560000C941C0760916703709168030E94240635
:1005700008950F931F93CF93DF93E0916703F0915A
:100580006803238121FF1BC08C01D0E0C0E0F8018B
:1005900081918F016091670370916803DB01189668
:1005A000ED91FC911997882331F00995892B79F306
:1005B000DFEFCFEFECCF8AE00995892B19F08FEFB1
:1005C0009FEF02C08D2F9C2FDF91CF911F910F9134
:1005D0000895ABE0B0E0EFEEF2E00C94F0066C01B1
:1005E0007B018A01FC0117821682838181FFCCC1C5
:1005F000CE0101963C01F6019381F70193FD8591AF
:1006000093FF81917F01882309F4BAC1853239F4BF
:1006100093FD859193FF81917F01853229F4B60185
:1006200090E00E942406E7CF912C212C312CFFE191
:10063000F315D8F08B3279F038F4803279F08332C8
:10064000A1F4232D20611DC08D3261F0803369F447
:10065000232D216016C0832D8260382EE32DE460A7
:100660003E2E2AC0F32DF8601DC037FC2DC020EDB2
:10067000280F2A3040F08E32B9F436FC81C1232D88
:100680002064322E19C036FE06C08AE0989E200DE6
:100690001124922E11C0EAE02E9E200D1124222E4C
:1006A000F32DF0623F2E08C08C3621F4832D806834
:1006B000382E02C0883641F4F70193FD859193FFEF
:1006C00081917F018111B3CF982F9F7D95549330F5
:1006D00028F40C5F1F4F9FE399830DC0833631F0E0
:1006E000833771F0833509F059C021C0F80180814A
:1006F00089830E5F1F4F88248394912C530113C06C
:100700002801F2E04F0E511CF801A080B18036FEA6
:1007100003C0692D70E002C06FEF7FEFC5010E943A
:1007200019064C018201F32DFF773F2E16C02801D8
:1007300022E0420E511CF801A080B18036FE03C0B9
:10074000692D70E002C06FEF7FEFC5010E940706C0
:100750004C01F32DF0683F2E820133FC1BC0822D2B
:1007600090E088169906B0F4B60180E290E00E940D
:1007700024062A94F4CFF50137FC859137FE819148
:100780005F01B60190E00E94240621102A9421E026
:10079000821A91088114910471F7E8C0843611F02F
:1007A000893641F5F80137FE07C060817181828189
:1007B00093810C5F1F4F08C060817181072E000C70
:1007C000880B990B0E5F1F4FF32DFF763F2E97FF7F
:1007D00009C090958095709561957F4F8F4F9F4F81
:1007E000F0683F2E2AE030E0A3010E946006882EC8
:1007F000861845C0853731F4232D2F7EB22E2AE08E
:1008000030E025C0932D997FB92E8F36C1F018F4B2
:10081000883579F0B5C0803719F0883721F0B0C03D
:10082000E92FE061BE2EB4FE0DC0FB2DF460BF2E9B
:1008300009C034FE0AC0292F2660B22E06C028E067
:1008400030E005C020E130E002C020E132E0F801F4
:10085000B7FE07C060817181828193810C5F1F4F59
:1008600006C06081718180E090E00E5F1F4FA301A0
:100870000E946006882E8618FB2DFF773F2E36FEDD
:100880000DC0232D2E7FA22E891458F434FE0BC0E8
:1008900032FC09C0832D8E7EA82E05C0B82CA32C57
:1008A00003C0B82C01C0B92CA4FE0FC0FE01E80D96
:1008B000F11D8081803321F49A2D997EA92E09C0E3
:1008C000A2FE06C0B394B39404C08A2D867809F0C2
:1008D000B394A3FC11C0A0FE06C0B21488F4280C87
:1008E000922C9B180EC0B21460F4B60180E290E026
:1008F0000E942406B394F7CFB21418F42B1802C048
:10090000982C212CA4FE10C0B60180E390E00E9438
:100910002406A2FE17C0A1FC03C088E790E002C035
:1009200088E590E0B6010CC08A2D867859F0A1FECA
:1009300002C08BE201C080E2A7FC8DE2B60190E02C
:100940000E942406891438F4B60180E390E00E94E6
:1009500024069A94F7CF8A94F301E80DF11D808163
:10096000B60190E00E9424068110F5CF222009F400
:1009700042CEB60180E290E00E9424062A94F6CF8F
:10098000F6018681978102C08FEF9FEF2B96E2E1FF
:100990000C940C070F931F93CF93DF93869F8001D6
:1009A000879F100D969F100D1124C8010E94E60428
:1009B000EC01009729F0A80160E070E00E941206A7
:1009C000CE01DF91CF911F910F9108950F931F9347
:1009D000CF93DF938230910510F482E090E0E091B4
:1009E0006D03F0916E0320E030E0A0E0B0E03097BE
:1009F00019F1408151810281138148175907C8F0CC
:100A00008417950769F4109731F012960C9312979A
:100A100013961C9327C000936D0310936E0322C09E
:100A20002115310519F04217530718F49A01BD0139
:100A3000EF01DF01F801DBCF21153105F9F0281BAB
:100A4000390B2430310580F48A819B816115710551
:100A500021F0FB019383828304C090936E03809303
:100A60006D03FE01329644C0FE01E20FF31F819335
:100A7000919322503109398328833AC020916B0326
:100A800030916C03232B41F4209106013091070132
:100A900030936C0320936B03209104013091050186
:100AA0002115310541F42DB73EB740910801509111
:100AB0000901241B350BE0916B03F0916C03E217E5
:100AC000F307A0F42E1B3F0B2817390778F0AC0171
:100AD0004E5F5F4F2417350748F04E0F5F1F50934E
:100AE0006C0340936B038193919302C0E0E0F0E0CC
:100AF000CF01DF91CF911F910F910895CF93DF9395
:100B0000009709F481C0FC01329713821282A091F0
:100B10006D03B0916E03109781F420813181820FB3
:100B2000931F20916B0330916C032817390751F5FF
:100B3000F0936C03E0936B0367C0ED0120E030E0BD
:100B4000CE17DF0740F44A815B819E0141155105B4
:100B5000F1F0EA01F5CFD383C28340815181840F44
:100B6000951FC817D90759F488819981840F951F5B
:100B70000296918380838A819B819383828321154E
:100B8000310529F4F0936E03E0936D033DC0E90154
:100B9000FB83EA8349915991C40FD51FEC17FD07D8
:100BA00061F480819181840F951F0296E9019983F8
:100BB0008883828193819B838A83E0E0F0E01296B0
:100BC0008D919C911397009719F0FD01DC01F7CFEF
:100BD0008D919C9111979D012E5F3F4F820F931F26
:100BE00020916B0330916C032817390769F4309713
:100BF00029F410926E0310926D0302C013821282C8
:100C0000B0936C03A0936B03DF91CF910895FC0127
:100C10000590615070400110D8F7809590958E0F27
:100C20009F1F0895DC0101C06D9341505040E0F7D3
:100C30000895FC016150704001900110D8F7809533
:100C400090958E0F9F1F08950F931F93CF93DF935F
:100C5000FB01238121FD03C08FEF9FEF2CC022FFFA
:100C600016C046815781248135814217530744F4C9
:100C7000A081B1819D012F5F3F4F318320838C93F1
:100C8000268137812F5F3F4F3783268314C08B0126
:100C9000EC01FB010084F185E02D0995892BE1F63B
:100CA000D80116968D919C911797019617969C9353
:100CB0008E931697CE01DF91CF911F910F910895DA
:100CC000FA01AA27283051F1203181F1E8946F937D
:100CD0006E7F6E5F7F4F8F4F9F4FAF4FB1E03ED023
:100CE000B4E03CD0670F781F891F9A1FA11D680FC1
:100CF000791F8A1F911DA11D6A0F711D811D911DF4
:100D0000A11D20D009F468943F912AE0269F112468
:100D10003019305D3193DEF6CF010895462F4770CC
:100D2000405D4193B3E00FD0C9F7F6CF462F4F7027
:100D3000405D4A3318F0495D31FD4052419302D085
:100D4000A9F7EACFB4E0A69597958795779567952B
:100D5000BA95C9F700976105710508959B01AC012B
:100D60000A2E06945795479537952795BA95C9F752
:100D7000620F731F841F951FA01D0895052E97FBFA
:100D80001EF400940E94D50657FD07D00E94270745
:100D900007FC03D04EF40C94D50650954095309541
:100DA00021953F4F4F4F5F4F0895909580957095D7
:100DB00061957F4F8F4F9F4F08950E944907A59FD0
:100DC000900DB49F900DA49F800D911D1124089546
:100DD000B7FF0C94DD060E94DD06821B930B08957D
:100DE0002F923F924F925F926F927F928F929F923B
:100DF000AF92BF92CF92DF92EF92FF920F931F9329
:100E0000CF93DF93CDB7DEB7CA1BDB0B0FB6F894D9
:100E1000DEBF0FBECDBF09942A88398848885F8419
:100E20006E847D848C849B84AA84B984C884DF808A
:100E3000EE80FD800C811B81AA81B981CE0FD11D6E
:100E40000FB6F894DEBF0FBECDBFED010895A1E24D
:100E50001A2EAA1BBB1BFD010DC0AA1FBB1FEE1F34
:100E6000FF1FA217B307E407F50720F0A21BB30B7F
:100E7000E40BF50B661F771F881F991F1A9469F7FB
:100E800060957095809590959B01AC01BD01CF0157
:100E90000895A29FB001B39FC001A39F700D811D53
:100EA0001124911DB29F700D811D1124911D089573
:040EB000F894FFCFE4
:100EB4000100000000006F03200000000002000099
:100EC400000057000000000053616D706C656420E1
:100ED40076616C7565206368616E6E656C20302088
:100EE400284A6F793129203D202564200A00536166
:100EF4006D706C65642076616C7565206368616EE5
:100F04006E656C203120284A6F793229203D2025D6
:100F140064200A0053616D706C65642076616C75A1
:100F240065206368616E6E656C20322028536C699D
:100F34004C29203D202564200A0053616D706C65A6
:100F4400642076616C7565206368616E6E656C20E3
:100F5400332028536C695229203D202564200A003F
:100F6400526573746172742066726F6D2074686563
:100F7400206669727374206368616E6E656C20000C
:100F840053656E74202564206F7665722053504932
:100F94000A0052656365697665642025642066727B
:100FA4006F6D2053504920736C6176650A00536558
:100FB4006E7420524541445F535441545553206943
:100FC4006E737472756374696F6E20746F204D4311
:100FD400502E2E2E0052656365697665643A20258D
:100FE40063256325632563256325632563256300E2
:100FF4005374617274696E67205352414D20746555
:1010040073742E2E2E0D00577269746520706861FA
:101014007365206572726F723A206578745F7261CD
:101024006D5B2534645D203D2025303258202873C3
:10103400686F756C642062652025303258290D0A6A
:101044000052657472696576616C207068617365BD
:10105400206572726F723A206578745F72616D5B9D
:101064002534645D203D2025303258202873686F74
:10107400756C642062652025303258290D0A0053AE
:1010840052414D207465737420636F6D706C657488
:1010940065642077697468200D0A253464206572BC
:1010A400726F727320696E2077726974652070683C
:1010B40061736520616E64200D0A253464206572B5
:1010C400726F727320696E207265747269657661DD
:1010D4006C2070686173650D0A0D0A0050726F67A9
:1010E40072616D207374617274656400584D454D6E
:1010F40020496E697420636F6D706C65746564005B
:1011040053504920496E697420636F6D706C657427
:04111400656400000E
:00000001FF
