:100000000C94B4010C94D1010C94D1010C94D10145
:100010000C94D1010C94D1010C94D1010C94D10118
:100020000C94D1010C94D1010C94D1010C94D10108
:100030000C94D1010C94D1010C94D1010C94D101F8
:100040000C94D1010C94D1010C94D1010C94D101E8
:100050000C94D1010C94D1010C94D1010C94D101D8
:100060000C94D1010C94D1010C94D1010C94D101C8
:10007000000000000000000000065F5F06000000B6
:100080000007070007070000147F7F147F7F14001C
:10009000242E6B6B3A120000466630180C66620024
:1000A000307A4F5D377A48000407030000000000F3
:1000B000001C3E63410000000041633E1C00000044
:1000C000082A3E1C1C3E2A0808083E3E080800007C
:1000D00000A0E06000000000080808080808000010
:1000E00000006060000000006030180C0603010092
:1000F0003E7F594D7F3E000042427F7F40400000DE
:10010000627359496F660000226349497F360000D7
:10011000181C16137F7F1000276745457D390000A6
:100120003C7E4B4979300000036371190F070000D2
:10013000367F49497F360000064F49693F1E00005F
:1001400000006C6C0000000000A0EC6C00000000DF
:10015000081C366341000000141414141414000029
:10016000004163361C080000020351590F060000CD
:100170003E7F415D5D1F1E007C7E13137E7C000070
:10018000417F7F49497F36001C3E63414163220025
:10019000417F7F41637F1C00417F7F495D41630058
:1001A000417F7F491D0103001C3E63415173720072
:1001B0007F7F08087F7F000000417F7F41000000B3
:1001C000307040417F3F0100417F7F081C77630012
:1001D000417F7F41406070007F7F060C067F7F007B
:1001E0007F7F060C187F7F001C3E6341633E1C002E
:1001F000417F7F49090F06001E3F21717F5E00008D
:10020000417F7F19396F460026674D597B320000C8
:1002100003417F7F410300007F7F40407F7F0000DC
:100220001F3F60603F1F00007F7F3018307F7F00DE
:1002300063771C081C776300074F78784F0700002E
:100240006773594D47637100007F7F414100000093
:100250000103060C183060000041417F7F00000060
:10026000080C0603060C0800808080808080808057
:100270000000030704000000207454543C78400040
:10028000413F7F44447C3800387C44446C28000063
:10029000307848493F7F4000387C54545C18000057
:1002A000487E7F490302000098BCA4A4F87C0400A7
:1002B000417F7F08047C780000447D7D4000000081
:1002C00040C484FD7D000000417F7F10386C4400F5
:1002D00000417F7F400000007C7C0C180C7C780083
:1002E0007C7C04047C780000387C44447C3800002A
:1002F00084FCF8A4243C1800183C24A4F8FC8400D6
:10030000447C78441C180000485C54547424000059
:1003100000043E7F442400003C7C40403C7C400084
:100320001C3C60603C1C00003C7C6030607C3C00FD
:10033000446C3810386C44009CBCA0A0FC7C0000CD
:100340004C64745C4C64000008083E774141000036
:1003500000000077770000004141773E0808000068
:10036000020301030203010011241FBECFEFD4E0FA
:10037000DEBFCDBF14E0A0E0B1E0E0E8F6E102C0EE
:1003800005900D92AC3EB107D9F724E0ACEEB4E095
:1003900001C01D92AE3FB207E1F70E94A5030C9485
:1003A0003E0B0C94000083E0809300142AE030E0C0
:1003B00005C00197F1F72150310919F080E797E165
:1003C000F8CFA0E0B4E18C91EEEEF4E080838C9164
:1003D00081838C9182838C918383CF0108956817E8
:1003E00050F020E8829FC001112470E00E94BA05FD
:1003F0006058710914C0462F50E0282F30E0241BAC
:10040000350BC9019695982F882797958795821B5C
:10041000930B6FEF70E0641B750B0E94BA05862F7B
:100420000895FF920F931F93CF93DF93EC01F62E65
:10043000062F10E01F926F938CE191E09F938F93B2
:100440000E9489060F900F900F900F9010161106C2
:100450006CF4FE01AE014F0D511D20E030E0919192
:10046000290F311DE417F507D1F702C020E030E075
:10047000C901B8010E94BA05EB01CB0199279F93EE
:100480008F933F932F9384E491E09F938F930E94E7
:1004900089060F900F900F900F900F900F908C2F58
:1004A000DF91CF911F910F91FF9008952F923F926E
:1004B0004F925F927F928F929F92AF92BF92CF9214
:1004C000DF92EF92FF920F931F93CF93DF9300D0B1
:1004D00000D0CDB7DEB7782E8DB69EB6082F10E0CF
:1004E0008DB79EB7801B910B0FB6F8949EBF0FBEC1
:1004F0008DBFEDB7FEB731966F01801B910B0FB624
:10050000F8949EBF0FBE8DBFEDB7FEB73196FC834A
:10051000EB83101611060CF046C05601FA83E983EE
:100520000C0D1D1D0F2EFBE74F2EF1E05F2EF02D61
:100530000F2EF3E92F2EF1E03F2EF02D0E94D30174
:100540007C01FC0180811F928F935F924F920E94E9
:100550008906F70181811F928F933F922F920E940B
:100560008906F7018081F50181935F01F70181819F
:10057000E981FA818193FA83E9838DB79EB7089662
:100580000FB6F8949EBF0FBE8DBF28EE33E005C0B6
:100590000197F1F72150310919F088EE93E0F8CF77
:1005A000A016B10659F6672DC6010E9411020CEE85
:1005B00014E0F8018083672D8B819C810E941102D9
:1005C000F8018183C8010FB6F8949EBE0FBE8DBEA0
:1005D0000F900F900F900F90DF91CF911F910F917F
:1005E000FF90EF90DF90CF90BF90AF909F908F9053
:1005F0007F905F904F903F902F900895CF93C82F9A
:100600008A3019F48DE00E94FE025D9BFECFCCB9CA
:1006100080E090E0CF91089585B7806885BF80B76E
:10062000806280BF84B38FEF84BB15BA08958E9A21
:10063000969AB89AB99887B387BB089583B78961AA
:1006400083BF0895CF92DF92EF92FF920F931F9393
:10065000CF93DF938BEA91E00E949F060E942E06C3
:100660007C010E943306C12CD12C00E010E0C2ECCA
:10067000D1E00E942E06F601F85E808320812817C3
:10068000A9F099279F938F931F922F93DF92CF9278
:10069000DF93CF930E9489060F5F1F4F8DB79EB7E0
:1006A00008960FB6F8949EBF0FBE8DBF9FEFC91A74
:1006B000D90AC11488E0D806E1F6C7010E943306C2
:1006C000C0E0D0E0E12CF12C0F2EFCEFCF2EF1E0BA
:1006D000DF2EF02D0E942E06FE01F85E20812817E5
:1006E000B1F099279F938F931F922F93DF93CF930E
:1006F000DF92CF920E9489069FEFE91AF90A8DB71F
:100700009EB708960FB6F8949EBF0FBE8DBF219678
:10071000C11598E0D907F1F6FF92EF921F930F935E
:100720008AE392E09F938F930E9489060F900F9027
:100730000F900F900F900F90DF91CF911F910F911D
:10074000FF90EF90DF90CF9008958FE190E00E94AE
:10075000AD058AE091E09093F7048093F60487E971
:1007600092E00E949F060E940C030E9417030E94C1
:100770001E0387EA92E00E949F060E945804C0E090
:100780008C2F0E947705CF5FCA30D1F78BEB92E0B8
:100790000E949F060E946B0584E690E005C02150F0
:1007A0003109E9F7019719F020E335E7F8CF0E9406
:1007B00022038AE00E945602EC0188811F928F93E7
:1007C0008EED92E09F938F930E94890689811F92FC
:1007D0008F9383E093E09F938F930E9489068DB758
:1007E0009EB708960FB6F8949EBF0FBE8DBF0F2E12
:1007F000F8E28F2EF3E09F2EF02D0F2EFEE4AF2EA9
:10080000F3E0BF2EF02D0F2EF4E7CF2EF3E0DF2E16
:10081000F02D0F2EFAE9EF2EF3E0FF2EF02D0E94BF
:10082000D3018C016881FC0180810E94EF01282F97
:10083000082E000C330B3F938F939F928F920E9450
:1008400089066981F80181810E94EF01282F082E15
:10085000000C330B3F938F93BF92AF920E94890697
:10086000F80182811F928F93DF92CF920E948906B6
:10087000F80183811F928F93FF92EF920E94890665
:100880008DB79EB740960FB6F8949EBF0FBE8DBF32
:100890002AE030E005C00197F1F72150310919F045
:1008A00080E395E7F8CF80EC93E00E949F06B7CFF6
:1008B000E0911A01F0911B018EEA8083E0911A0108
:1008C000F0911B0181EA8083E0911A01F0911B01F4
:1008D0008AED8083E0911A01F0911B0182E180830F
:1008E000E0911A01F0911B0188EC8083E0911A01DC
:1008F000F0911B0188EA8083E0911A01F0911B01BD
:100900008FE38083E0911A01F0911B0185ED8083D4
:10091000E0911A01F0911B0180E88083E0911A01B7
:10092000F0911B0181E88083E0911A01F0911B0195
:1009300080E58083E0911A01F0911B0189ED8083AD
:10094000E0911A01F0911B0181E28083E0911A018C
:10095000F0911B0180E28083E0911A01F0911B016C
:100960001082E0911A01F0911B018BED8083E091E0
:100970001A01F0911B0180E38083E0911A01F0914C
:100980001B018DEA8083E0911A01F0911B01108216
:10099000E0911A01F0911B0184EA8083E0911A0131
:1009A000F0911B0186EA8083E0911A01F0911B010E
:1009B0008FEA80830895E0911A01F0911B0190E283
:1009C0009083E0911A01F0911B0180830895CF93E9
:1009D000DF93D82FC62F80E00E94DB04CD1788F06C
:1009E000E0911A01F0911B0181E28083E0911A01EC
:1009F000F0911B01D083E0911A01F0911B01C0839B
:100A000004C080EE93E00E949F06DF91CF9108958D
:100A1000CF93C82F88232CF485E294E00E949F0690
:100A200005C06FE70E94E704C093F204CF910895D8
:100A3000CF93DF93D82FC62F80E00E94DB04CD1721
:100A400088F0E0911A01F0911B0182E28083E0912D
:100A50001A01F0911B01D083E0911A01F0911B0162
:100A6000C08304C08AE594E00E949F06DF91CF9185
:100A70000895CF93C82F883028F08DE994E00E9424
:100A80009F0605C067E00E941805C093F304CF914C
:100A90000895CF93C62F0E9439058C2F0E94080518
:100AA000CF910895CF93C82F60E00E94490580E858
:100AB00090E0E0911801F091190110820197C9F7B7
:100AC00060E08C2F0E944905CF91089560E080E09E
:100AD0000E9449050895CF93C0E08C2F0E945205D3
:100AE000CF5FC830D1F70E946605CF910895EF928D
:100AF000FF920F931F93CF93DF9398E0899F70012C
:100B00001124C0E0D0E000ED14E0FE01EE0DFF1D69
:100B1000E059FF4F859194919F938F93DF93CF93EB
:100B20001F930F930E94890621960F900F900F90AC
:100B30000F900F900F90C830D10539F7DF91CF910A
:100B40001F910F91FF90EF9008955D9BFECF8CB9A0
:100B500008955F9BFECF8CB1089590BD89B988E15F
:100B60008AB98EE880BD69EA75E085EA95E00E9461
:100B70003E06089597FB072E16F4009407D077FDE4
:100B800009D00E94CE0507FC05D03EF490958195D2
:100B90009F4F0895709561957F4F0895AA1BBB1BC9
:100BA00051E107C0AA1FBB1FA617B70710F0A61B6D
:100BB000B70B881F991F5A95A9F780959095BC018E
:100BC000CD0108958F929F92AF92BF92CF92DF9204
:100BD000EF92FF92CF93DF93EC01688179818A8154
:100BE0009B81611571058105910521F464E279ED20
:100BF0008BE597E02DE133EF41E050E00E94A40A3D
:100C000049015A019B01AC01A7EAB1E40E94C30A61
:100C10006B017C01ACEEB4EFA50194010E94D10AF6
:100C2000DC01CB018C0D9D1DAE1DBF1DB7FF03C0A8
:100C30000197A109B04888839983AA83BB839F77D2
:100C4000DF91CF91FF90EF90DF90CF90BF90AF906A
:100C50009F908F9008950E94E205089580E091E0B2
:100C60000E94E2050895A0E0B0E080930001909317
:100C70000101A0930201B093030108950F931F9304
:100C8000CF93DF93009731F46115710519F480E07B
:100C900090E03AC08B01EC016EE070E081E090E002
:100CA0000E94B008FC01892B91F380E88383011531
:100CB000110571F01387028781E883838091F40422
:100CC0009091F504892B21F4F093F504E093F4045A
:100CD0002097C9F0D187C087838182608383809108
:100CE000F6049091F704892B71F4F093F704E093E4
:100CF000F6048091F8049091F904892B21F4F09383
:100D0000F904E093F804CF01DF91CF911F910F9187
:100D10000895A0E0B0E0EFE8F6E00C94E60AAE013A
:100D20004B5F5F4FFA0161917191AF018091F604C1
:100D30009091F7040E94CF06E2E00C94020B0F930F
:100D40001F93CF93DF93E091F604F091F704238192
:100D500021FF1BC08C01D0E0C0E0F80181918F0120
:100D60006091F6047091F704DB011896ED91FC9107
:100D70001997882331F00995892B79F3DFEFCFEFAD
:100D8000ECCF8AE00995892B19F08FEF9FEF02C015
:100D90008D2F9C2FDF91CF911F910F910895ABE084
:100DA000B0E0E5EDF6E00C94D60A6C017B018A0117
:100DB000FC0117821682838181FFCCC1CE0101968E
:100DC0003C01F6019381F70193FD859193FF819199
:100DD0007F01882309F4BAC1853239F493FD8591E6
:100DE00093FF81917F01853229F4B60190E00E9442
:100DF0000A0AE7CF912C212C312CFFE1F315D8F012
:100E00008B3279F038F4803279F08332A1F4232DDB
:100E100020611DC08D3261F0803369F4232D216083
:100E200016C0832D8260382EE32DE4603E2E2AC04A
:100E3000F32DF8601DC037FC2DC020ED280F2A309F
:100E400040F08E32B9F436FC81C1232D2064322E5D
:100E500019C036FE06C08AE0989E200D1124922EFD
:100E600011C0EAE02E9E200D1124222EF32DF062F7
:100E70003F2E08C08C3621F4832D8068382E02C0A6
:100E8000883641F4F70193FD859193FF81917F01AD
:100E90008111B3CF982F9F7D9554933028F40C5F28
:100EA0001F4F9FE399830DC0833631F0833771F074
:100EB000833509F059C021C0F801808189830E5F14
:100EC0001F4F88248394912C530113C02801F2E012
:100ED0004F0E511CF801A080B18036FE03C0692D71
:100EE00070E002C06FEF7FEFC5010E94FF094C0167
:100EF0008201F32DFF773F2E16C0280122E0420E1B
:100F0000511CF801A080B18036FE03C0692D70E04D
:100F100002C06FEF7FEFC5010E94ED094C01F32D78
:100F2000F0683F2E820133FC1BC0822D90E08816B2
:100F30009906B0F4B60180E290E00E940A0A2A9471
:100F4000F4CFF50137FC859137FE81915F01B60141
:100F500090E00E940A0A21102A9421E0821A910846
:100F60008114910471F7E8C0843611F0893641F597
:100F7000F80137FE07C060817181828193810C5F27
:100F80001F4F08C060817181072E000C880B990BE0
:100F90000E5F1F4FF32DFF763F2E97FF09C09095F0
:100FA0008095709561957F4F8F4F9F4FF0683F2ED2
:100FB0002AE030E0A3010E94460A882E861845C028
:100FC000853731F4232D2F7EB22E2AE030E025C064
:100FD000932D997FB92E8F36C1F018F4883579F0AA
:100FE000B5C0803719F0883721F0B0C0E92FE06133
:100FF000BE2EB4FE0DC0FB2DF460BF2E09C034FE22
:101000000AC0292F2660B22E06C028E030E005C0B5
:1010100020E130E002C020E132E0F801B7FE07C075
:1010200060817181828193810C5F1F4F06C0608156
:10103000718180E090E00E5F1F4FA3010E94460A7D
:10104000882E8618FB2DFF773F2E36FE0DC0232DF0
:101050002E7FA22E891458F434FE0BC032FC09C036
:10106000832D8E7EA82E05C0B82CA32C03C0B82CCF
:1010700001C0B92CA4FE0FC0FE01E80DF11D808156
:10108000803321F49A2D997EA92E09C0A2FE06C0B4
:10109000B394B39404C08A2D867809F0B394A3FC6A
:1010A00011C0A0FE06C0B21488F4280C922C9B1824
:1010B0000EC0B21460F4B60180E290E00E940A0A09
:1010C000B394F7CFB21418F42B1802C0982C212C2B
:1010D000A4FE10C0B60180E390E00E940A0AA2FEBE
:1010E00017C0A1FC03C088E790E002C088E590E04B
:1010F000B6010CC08A2D867859F0A1FE02C08BE2A1
:1011000001C080E2A7FC8DE2B60190E00E940A0ACD
:10111000891438F4B60180E390E00E940A0A9A9498
:10112000F7CF8A94F301E80DF11D8081B60190E0BC
:101130000E940A0A8110F5CF222009F442CEB6019E
:1011400080E290E00E940A0A2A94F6CFF601868196
:10115000978102C08FEF9FEF2B96E2E10C94F20A89
:101160000F931F93CF93DF93869F8001879F100D6E
:10117000969F100D1124C8010E94CC08EC01009725
:1011800029F0A80160E070E00E94F809CE01DF912B
:10119000CF911F910F9108950F931F93CF93DF93DA
:1011A0008230910510F482E090E0E091FC04F0912F
:1011B000FD0420E030E0A0E0B0E0309719F140817C
:1011C00051810281138148175907C8F08417950788
:1011D00069F4109731F012960C93129713961C93A2
:1011E00027C00093FC041093FD0422C02115310593
:1011F00019F04217530718F49A01BD01EF01DF01FE
:10120000F801DBCF21153105F9F0281B390B24300B
:10121000310580F48A819B816115710521F0FB0104
:101220009383828304C09093FD048093FC04FE01A9
:10123000329644C0FE01E20FF31F81939193225036
:101240003109398328833AC02091FA043091FB0494
:10125000232B41F420910601309107013093FB04C8
:101260002093FA04209104013091050121153105E4
:1012700041F42DB73EB74091080150910901241B5C
:10128000350BE091FA04F091FB04E217F307A0F4A8
:101290002E1B3F0B2817390778F0AC014E5F5F4FCC
:1012A0002417350748F04E0F5F1F5093FB044093FF
:1012B000FA048193919302C0E0E0F0E0CF01DF9166
:1012C000CF911F910F910895CF93DF93009709F469
:1012D00081C0FC01329713821282A091FC04B0916C
:1012E000FD04109781F420813181820F931F20919A
:1012F000FA043091FB042817390751F5F093FB04E9
:10130000E093FA0467C0ED0120E030E0CE17DF077C
:1013100040F44A815B819E0141155105F1F0EA01DB
:10132000F5CFD383C28340815181840F951FC817A5
:10133000D90759F488819981840F951F029691836A
:1013400080838A819B81938382832115310529F4CF
:10135000F093FD04E093FC043DC0E901FB83EA83C4
:1013600049915991C40FD51FEC17FD0761F4808195
:101370009181840F951F0296E90199838883828168
:1013800093819B838A83E0E0F0E012968D919C919B
:101390001397009719F0FD01DC01F7CF8D919C9117
:1013A00011979D012E5F3F4F820F931F2091FA04EA
:1013B0003091FB042817390769F4309729F410920B
:1013C000FD041092FC0402C013821282B093FB044D
:1013D000A093FA04DF91CF910895FC01059061502C
:1013E00070400110D8F7809590958E0F9F1F08953B
:1013F000DC0101C06D9341505040E0F70895FC01BD
:101400006150704001900110D8F7809590958E0F33
:101410009F1F08950F931F93CF93DF93FB012381A9
:1014200021FD03C08FEF9FEF2CC022FF16C0468125
:101430005781248135814217530744F4A081B1813B
:101440009D012F5F3F4F318320838C93268137810D
:101450002F5F3F4F3783268314C08B01EC01FB01C4
:101460000084F185E02D0995892BE1F6D8011696C7
:101470008D919C911797019617969C938E93169732
:10148000CE01DF91CF911F910F910895FA01AA2704
:10149000283051F1203181F1E8946F936E7F6E5FB7
:1014A0007F4F8F4F9F4FAF4FB1E03ED0B4E03CD065
:1014B000670F781F891F9A1FA11D680F791F8A1F48
:1014C000911DA11D6A0F711D811D911DA11D20D0AF
:1014D00009F468943F912AE0269F11243019305D69
:1014E0003193DEF6CF010895462F4770405D41935A
:1014F000B3E00FD0C9F7F6CF462F4F70405D4A33A7
:1015000018F0495D31FD4052419302D0A9F7EACF6E
:10151000B4E0A6959795879577956795BA95C9F79D
:1015200000976105710508959B01AC010A2E069490
:101530005795479537952795BA95C9F7620F731F49
:10154000841F951FA01D0895052E97FB1EF400947F
:101550000E94BB0A57FD07D00E940D0B07FC03D069
:101560004EF40C94BB0A50954095309521953F4F11
:101570004F4F5F4F089590958095709561957F4F7F
:101580008F4F9F4F08950E942F0BA59F900DB49FE2
:10159000900DA49F800D911D11240895B7FF0C9408
:1015A000C30A0E94C30A821B930B08952F923F9295
:1015B0004F925F926F927F928F929F92AF92BF9263
:1015C000CF92DF92EF92FF920F931F93CF93DF930F
:1015D000CDB7DEB7CA1BDB0B0FB6F894DEBF0FBE6C
:1015E000CDBF09942A88398848885F846E847D84B9
:1015F0008C849B84AA84B984C884DF80EE80FD80BB
:101600000C811B81AA81B981CE0FD11D0FB6F89430
:10161000DEBF0FBECDBFED010895A1E21A2EAA1BB9
:10162000BB1BFD010DC0AA1FBB1FEE1FFF1FA21792
:10163000B307E407F50720F0A21BB30BE40BF50B8F
:10164000661F771F881F991F1A9469F76095709518
:10165000809590959B01AC01BD01CF010895A29F9B
:10166000B001B39FC001A39F700D811D1124911D76
:10167000B29F700D811D1124911D0895F894FFCF24
:10168000010000000000FE04200000000002000035
:101690000000FE020000000000120010436F6D7099
:1016A0007574696E672061766572616765206F6623
:1016B000206172726179206F662073697A652025D6
:1016C00064200A00546F74616C2073756D2077611B
:1016D000732025642E20436F6D70757465642061DE
:1016E000766572616765642072657475726E656493
:1016F0002069732025642E200A0A0053616D706CE6
:10170000652066726F6D204A6F7931203D20256417
:10171000200A0053616D706C652066726F6D204AFF
:101720006F7932203D202564200A00537461727461
:10173000696E67205352414D20746573742E2E2EAE
:101740000D00577269746520706861736520657259
:10175000726F723A206578745F72616D5B253464D4
:101760005D203D2025303258202873686F756C64E9
:101770002062652025303258290D0A0052657472A6
:10178000696576616C207068617365206572726F3F
:10179000723A206578745F72616D5B2534645D20F8
:1017A0003D2025303258202873686F756C642062A4
:1017B000652025303258290D0A005352414D2074BE
:1017C00065737420636F6D706C65746564207769F0
:1017D0007468200D0A253464206572726F7273205C
:1017E000696E207772697465207068617365206125
:1017F0006E64200D0A253464206572726F72732046
:10180000696E2072657472696576616C20706861BA
:1018100073650D0A0D0A0050726F6772616D207357
:1018200074617274656400584D454D20496E697449
:1018300020636F6D706C6574656400417474656DD0
:101840007074696E6720746F20636C656172204FDD
:101850004C45442073637265656E2E2E2E005361D5
:101860006D706C65642061766572616765206F726A
:101870006967696E20284A6F793129203D202564E7
:10188000200A0053616D706C656420617665726139
:101890006765206F726967696E20284A6F793229FF
:1018A000203D202564200A0053616D706C65642022
:1018B00076616C7565206368616E6E656C203020A2
:1018C000284A6F793129203D202564200A00536180
:1018D0006D706C65642076616C7565206368616EFF
:1018E0006E656C203120284A6F793229203D2025F1
:1018F00064200A0053616D706C65642076616C75BC
:1019000065206368616E6E656C20322028536C69B7
:101910004C29203D202564200A0053616D706C65C0
:10192000642076616C7565206368616E6E656C20FD
:10193000332028536C695229203D202564200A0059
:10194000526573746172742066726F6D207468657D
:10195000206669727374206368616E6E656C200026
:101960004572726F722C20636F6C756D6E206164AE
:1019700064726573732073657474696E673A20537B
:101980007461727420706F736974696F6E2069730B
:1019900020616674657220656E6420706F7369746F
:1019A000696F6E20004F4C4544204572726F723A49
:1019B00020417474656D7074696E6720746F206760
:1019C0006F20746F20636F6C756D6E206F7574205F
:1019D0006F6620626F756E6473004572726F722C51
:1019E000207061676520616464726573732073653C
:1019F0007474696E673A20537461727420706F73E7
:101A00006974696F6E206973206166746572206500
:101A10006E6420706F736974696F6E20004F4C455F
:101A200044204572726F723A20417474656D70740F
:101A3000696E6720746F20676F20746F2070616714
:101A400065206F7574206F6620626F756E64730019
:101A5000456C656D656E74206F6620696E6465788F
:0C1A6000202564203D2025643A0A000087
:00000001FF
