S01000004F4C45445F4558342E73726563C0
S11300000C94B4010C94D1010C94D1010C94D10141
S11300100C94D1010C94D1010C94D1010C94D10114
S11300200C94D1010C94D1010C94D1010C94D10104
S11300300C94D1010C94D1010C94D1010C94D101F4
S11300400C94D1010C94D1010C94D1010C94D101E4
S11300500C94D1010C94D1010C94D1010C94D101D4
S11300600C94D1010C94D1010C94D1010C94D101C4
S1130070000000000000000000065F5F06000000B2
S11300800007070007070000147F7F147F7F140018
S1130090242E6B6B3A120000466630180C66620020
S11300A0307A4F5D377A48000407030000000000EF
S11300B0001C3E63410000000041633E1C00000040
S11300C0082A3E1C1C3E2A0808083E3E0808000078
S11300D000A0E0600000000008080808080800000C
S11300E000006060000000006030180C060301008E
S11300F03E7F594D7F3E000042427F7F40400000DA
S1130100627359496F660000226349497F360000D3
S1130110181C16137F7F1000276745457D390000A2
S11301203C7E4B4979300000036371190F070000CE
S1130130367F49497F360000064F49693F1E00005B
S113014000006C6C0000000000A0EC6C00000000DB
S1130150081C366341000000141414141414000025
S1130160004163361C080000020351590F060000C9
S11301703E7F415D5D1F1E007C7E13137E7C00006C
S1130180417F7F49497F36001C3E63414163220021
S1130190417F7F41637F1C00417F7F495D41630054
S11301A0417F7F491D0103001C3E6341517372006E
S11301B07F7F08087F7F000000417F7F41000000AF
S11301C0307040417F3F0100417F7F081C7763000E
S11301D0417F7F41406070007F7F060C067F7F0077
S11301E07F7F060C187F7F001C3E6341633E1C002A
S11301F0417F7F49090F06001E3F21717F5E000089
S1130200417F7F19396F460026674D597B320000C4
S113021003417F7F410300007F7F40407F7F0000D8
S11302201F3F60603F1F00007F7F3018307F7F00DA
S113023063771C081C776300074F78784F0700002A
S11302406773594D47637100007F7F41410000008F
S11302500103060C183060000041417F7F0000005C
S1130260080C0603060C0800808080808080808053
S11302700000030704000000207454543C7840003C
S1130280413F7F44447C3800387C44446C2800005F
S1130290307848493F7F4000387C54545C18000053
S11302A0487E7F490302000098BCA4A4F87C0400A3
S11302B0417F7F08047C780000447D7D400000007D
S11302C040C484FD7D000000417F7F10386C4400F1
S11302D000417F7F400000007C7C0C180C7C78007F
S11302E07C7C04047C780000387C44447C38000026
S11302F084FCF8A4243C1800183C24A4F8FC8400D2
S1130300447C78441C180000485C54547424000055
S113031000043E7F442400003C7C40403C7C400080
S11303201C3C60603C1C00003C7C6030607C3C00F9
S1130330446C3810386C44009CBCA0A0FC7C0000C9
S11303404C64745C4C64000008083E774141000032
S113035000000077770000004141773E0808000064
S1130360020301030203010011241FBECFEFD4E0F6
S1130370DEBFCDBF12E0A0E0B1E0E8E0FFE002C0E4
S113038005900D92A23FB107D9F722E0A2EFB2E0A7
S113039001C01D92AC3FB207E1F70E94F7010C9433
S11303A082070C940000CF93C82F8A3019F48DE093
S11303B00E94D3015D9BFECFCCB980E090E0CF9149
S11303C0089585B7806885BF80B7806280BF84B395
S11303D08FEF84BB15BA08958E9A969AB89AB998F5
S11303E087B387BB089583B7896183BF08958FE17D
S11303F090E00E94D80286E091E09093F502809309
S1130400F40280E092E00E9446030E94E1010E940F
S1130410EC010E94F30180E192E00E944603C0E0F7
S11304208C2F0E94A402CF5FCA30D1F70E944702EA
S11304300E949B028AE090E005C021503109E9F74F
S1130440019719F020E335E7F8CF84E292E00E94A7
S113045046030E9474022AE030E005C00197F1F7D8
S11304602150310919F080E395E7F8CF89E392E050
S11304700E9446030E9474022AE030E005C00197FE
S1130480F1F72150310909F380E395E7F8CFE0E073
S1130490F2E18EEA808381EA80838AED808382E1BF
S11304A0808388EC808388EA80838FE3808385ED72
S11304B0808380E8808381E8808380E5808389ED80
S11304C0808381E2808380E2808310828BED80834D
S11304D080E380838DEA8083108284EA808386EAC5
S11304E080838FEA80830895E0E0F0E188E18083EF
S11304F080839EE790839CE390838083089586178E
S113050038F4E0E0F2E191E290838083608308951F
S11305108EE492E00E9446030895861738F4E0E0E2
S1130520F2E192E2908380836083089583E992E00C
S11305300E94460308956FE780E00E947F0267E00F
S113054080E00E948D020895EF92FF920F931F9313
S1130550CF93DF930F2EF8E7EF2EF0E0FF2EF02D70
S1130560C0E0D0E006ED12E0F70181917F011F9217
S11305708F93DF93CF931F930F930E9430032196A1
S11305800F900F900F900F900F900F90C830D105DF
S113059059F7DF91CF911F910F91FF90EF9008953C
S11305A05D9BFECF8CB908955F9BFECF8CB10895FF
S11305B090BD89B988E18AB98EE880BD64ED72E0A6
S11305C080ED92E00E94E50208950F931F93CF936C
S11305D0DF93009731F46115710519F480E090E020
S11305E03AC08B01EC016EE070E081E090E00E9483
S11305F05705FC01892B91F380E8838301151105CC
S113060071F01387028781E883838091F2029091CD
S1130610F302892B21F4F093F302E093F202209782
S1130620C9F0D187C0878381826083838091F4027B
S11306309091F502892B71F4F093F502E093F402A2
S11306408091F6029091F702892B21F4F093F7023E
S1130650E093F602CF01DF91CF911F910F9108959E
S1130660A0E0B0E0E6E3F3E00C945B07AE014B5F7F
S11306705F4FFA0161917191AF018091F402909101
S1130680F5020E947603E2E00C9477070F931F9320
S1130690CF93DF93E091F402F091F502238121FFDF
S11306A01BC08C01D0E0C0E0F80181918F01609102
S11306B0F4027091F502DB011896ED91FC91199703
S11306C0882331F00995892B79F3DFEFCFEFECCF55
S11306D08AE00995892B19F08FEF9FEF02C08D2FC7
S11306E09C2FDF91CF911F910F910895ABE0B0E063
S11306F0ECE7F3E00C944B076C017B018A01FC01ED
S113070017821682838181FFCCC1CE0101963C0100
S1130710F6019381F70193FD859193FF81917F0108
S1130720882309F4BAC1853239F493FD859193FF86
S113073081917F01853229F4B60190E00E94B106CF
S1130740E7CF912C212C312CFFE1F315D8F08B321B
S113075079F038F4803279F08332A1F4232D2061CA
S11307601DC08D3261F0803369F4232D216016C0E1
S1130770832D8260382EE32DE4603E2E2AC0F32DB3
S1130780F8601DC037FC2DC020ED280F2A3040F042
S11307908E32B9F436FC81C1232D2064322E19C067
S11307A036FE06C08AE0989E200D1124922E11C0B8
S11307B0EAE02E9E200D1124222EF32DF0623F2E0E
S11307C008C08C3621F4832D8068382E02C0883608
S11307D041F4F70193FD859193FF81917F0181118C
S11307E0B3CF982F9F7D9554933028F40C5F1F4FFF
S11307F09FE399830DC0833631F0833771F08335DD
S113080009F059C021C0F801808189830E5F1F4F10
S113081088248394912C530113C02801F2E04F0ED5
S1130820511CF801A080B18036FE03C0692D70E030
S113083002C06FEF7FEFC5010E94A6064C01820142
S1130840F32DFF773F2E16C0280122E0420E511CE3
S1130850F801A080B18036FE03C0692D70E002C0AB
S11308606FEF7FEFC5010E9494064C01F32DF068F1
S11308703F2E820133FC1BC0822D90E0881699061E
S1130880B0F4B60180E290E00E94B1062A94F4CF5D
S1130890F50137FC859137FE81915F01B60190E047
S11308A00E94B10621102A9421E0821A9108811431
S11308B0910471F7E8C0843611F0893641F5F801E6
S11308C037FE07C060817181828193810C5F1F4F65
S11308D008C060817181072E000C880B990B0E5F94
S11308E01F4FF32DFF763F2E97FF09C090958095FB
S11308F0709561957F4F8F4F9F4FF0683F2E2AE090
S113090030E0A3010E94ED06882E861845C0853785
S113091031F4232D2F7EB22E2AE030E025C0932D12
S1130920997FB92E8F36C1F018F4883579F0B5C0A7
S1130930803719F0883721F0B0C0E92FE061BE2E6E
S1130940B4FE0DC0FB2DF460BF2E09C034FE0AC0F6
S1130950292F2660B22E06C028E030E005C020E131
S113096030E002C020E132E0F801B7FE07C0608148
S11309707181828193810C5F1F4F06C060817181F8
S113098080E090E00E5F1F4FA3010E94ED06882EC9
S11309908618FB2DFF773F2E36FE0DC0232D2E7FAC
S11309A0A22E891458F434FE0BC032FC09C0832DE6
S11309B08E7EA82E05C0B82CA32C03C0B82C01C071
S11309C0B92CA4FE0FC0FE01E80DF11D8081803317
S11309D021F49A2D997EA92E09C0A2FE06C0B394D3
S11309E0B39404C08A2D867809F0B394A3FC11C093
S11309F0A0FE06C0B21488F4280C922C9B180EC0DA
S1130A00B21460F4B60180E290E00E94B106B3949F
S1130A10F7CFB21418F42B1802C0982C212CA4FE82
S1130A2010C0B60180E390E00E94B106A2FE17C098
S1130A30A1FC03C088E790E002C088E590E0B6011D
S1130A400CC08A2D867859F0A1FE02C08BE201C049
S1130A5080E2A7FC8DE2B60190E00E94B106891401
S1130A6038F4B60180E390E00E94B1069A94F7CF7F
S1130A708A94F301E80DF11D8081B60190E00E9493
S1130A80B1068110F5CF222009F442CEB60180E2EE
S1130A9090E00E94B1062A94F6CFF60186819781F0
S1130AA002C08FEF9FEF2B96E2E10C9467070F9340
S1130AB01F93CF93DF93869F8001879F100D969F8E
S1130AC0100D1124C8010E947305EC01009729F050
S1130AD0A80160E070E00E949F06CE01DF91CF91F3
S1130AE01F910F9108950F931F93CF93DF9382303B
S1130AF0910510F482E090E0E091FA02F091FB029B
S1130B0020E030E0A0E0B0E0309719F1408151815D
S1130B100281138148175907C8F08417950769F4AF
S1130B20109731F012960C93129713961C9327C0CA
S1130B300093FA021093FB0222C02115310519F02B
S1130B404217530718F49A01BD01EF01DF01F801C0
S1130B50DBCF21153105F9F0281B390B2430310581
S1130B6080F48A819B816115710521F0FB019383D7
S1130B70828304C09093FB028093FA02FE013296B2
S1130B8044C0FE01E20FF31F819391932250310977
S1130B90398328833AC02091F8023091F902232B3B
S1130BA041F420910201309103013093F902209322
S1130BB0F80220910001309101012115310541F421
S1130BC02DB73EB74091040150910501241B350B0C
S1130BD0E091F802F091F902E217F307A0F42E1B5A
S1130BE03F0B2817390778F0AC014E5F5F4F24178D
S1130BF0350748F04E0F5F1F5093F9024093F802F7
S1130C008193919302C0E0E0F0E0CF01DF91CF91B6
S1130C101F910F910895CF93DF93009709F481C03A
S1130C20FC01329713821282A091FA02B091FB0266
S1130C30109781F420813181820F931F2091F80253
S1130C403091F9022817390751F5F093F902E0932E
S1130C50F80267C0ED0120E030E0CE17DF0740F472
S1130C604A815B819E0141155105F1F0EA01F5CFFE
S1130C70D383C28340815181840F951FC817D9073C
S1130C8059F488819981840F951F029691838083FA
S1130C908A819B81938382832115310529F4F09302
S1130CA0FB02E093FA023DC0E901FB83EA83499128
S1130CB05991C40FD51FEC17FD0761F48081918110
S1130CC0840F951F0296E901998388838281938119
S1130CD09B838A83E0E0F0E012968D919C911397B8
S1130CE0009719F0FD01DC01F7CF8D919C911197CC
S1130CF09D012E5F3F4F820F931F2091F802309188
S1130D00F9022817390769F4309729F41092FB0285
S1130D101092FA0202C013821282B093F902A093D5
S1130D20F802DF91CF910895FC0105906150704065
S1130D300110D8F7809590958E0F9F1F0895DC01C0
S1130D4001C06D9341505040E0F70895FC0161509B
S1130D50704001900110D8F7809590958E0F9F1FD9
S1130D6008950F931F93CF93DF93FB01238121FDFC
S1130D7003C08FEF9FEF2CC022FF16C0468157811E
S1130D80248135814217530744F4A081B1819D0128
S1130D902F5F3F4F318320838C93268137812F5FD0
S1130DA03F4F3783268314C08B01EC01FB01008481
S1130DB0F185E02D0995892BE1F6D80116968D91E0
S1130DC09C911797019617969C938E931697CE0134
S1130DD0DF91CF911F910F910895FA01AA2728302E
S1130DE051F1203181F1E8946F936E7F6E5F7F4FF4
S1130DF08F4F9F4FAF4FB1E03ED0B4E03CD0670F70
S1130E00781F891F9A1FA11D680F791F8A1F911DC2
S1130E10A11D6A0F711D811D911DA11D20D009F412
S1130E2068943F912AE0269F11243019305D319354
S1130E30DEF6CF010895462F4770405D4193B3E03D
S1130E400FD0C9F7F6CF462F4F70405D4A3318F0E4
S1130E50495D31FD4052419302D0A9F7EACFB4E095
S1130E60A6959795879577956795BA95C9F700974D
S1130E706105710508959B01AC010A2E06945795EE
S1130E80479537952795BA95C9F7620F731F841F45
S1130E90951FA01D08952F923F924F925F926F92DB
S1130EA07F928F929F92AF92BF92CF92DF92EF92F6
S1130EB0FF920F931F93CF93DF93CDB7DEB7CA1B77
S1130EC0DB0B0FB6F894DEBF0FBECDBF09942A88A2
S1130ED0398848885F846E847D848C849B84AA844A
S1130EE0B984C884DF80EE80FD800C811B81AA81D7
S1130EF0B981CE0FD11D0FB6F894DEBF0FBECDBFA2
S10B0F00ED010895F894FFCF00
S1130F080000FC0220000000000200000000D301E1
S1130F18000000005374617274696E672053524173
S1130F284D20746573742E2E2E0D005772697465E6
S1130F38207068617365206572726F723A206578F3
S1130F48745F72616D5B2534645D203D2025303209
S1130F5858202873686F756C6420626520253032C8
S1130F6858290D0A0052657472696576616C20709F
S1130F7868617365206572726F723A206578745F70
S1130F8872616D5B2534645D203D20253032582024
S1130F982873686F756C642062652025303258297F
S1130FA80D0A005352414D207465737420636F6DAC
S1130FB8706C657465642077697468200D0A25343B
S1130FC864206572726F727320696E207772697417
S1130FD86520706861736520616E64200D0A25348C
S1130FE864206572726F727320696E207265747200
S1130FF8696576616C2070686173650D0A0D0A0075
S113100850726F6772616D207374617274656400E5
S1131018584D454D20496E697420636F6D706C6539
S113102874656400496E76657274696E67204469F4
S113103873706C61792E2E2E00496E766572746910
S11310486E6720646973706C61792E2E2E00457268
S1131058726F722C20636F6C756D6E20616464729C
S11310686573732073657474696E673A2053746189
S1131078727420706F736974696F6E20697320616C
S11310886674657220656E6420706F736974696F25
S11310986E20004572726F722C2070616765206142
S11310A86464726573732073657474696E673A2037
S11310B8537461727420706F736974696F6E2069F8
S11310C87320616674657220656E6420706F73693D
S11310D874696F6E2000456C656D656E74206F666B
S11310E820696E646578202564203D2025643A0AC9
S10510F80000F2
S9030000FC
