:100000000C9438000C9455000C9485000C94550009
:100010000C9455000C9455000C9455000C9455000C
:100020000C9455000C9455000C9455000C945500FC
:100030000C9455000C9455000C9455000C945500EC
:100040000C9455000C9455000C9455000C945500DC
:100050000C9455000C9455000C9455000C945500CC
:100060000C9455000C9455000C9455000C945500BC
:1000700011241FBECFEFD4E0DEBFCDBF13E0A0E060
:10008000B1E0EAEDFCE002C005900D92AC3CB10796
:10009000D9F723E0ACECB3E001C01D92A73DB20755
:1000A000E1F70E94B8000C946B060C940000CF930B
:1000B000C82F8A3019F48DE00E9457005D9BFECF57
:1000C000CCB980E090E0CF91089585B7806885BF76
:1000D00080B7806280BF84B38FEF84BB15BA089568
:1000E0008E9A969AB89AB99887B387BB089583B7C2
:1000F000896183BF08950E94B20185B7886085BF7A
:1001000078948BB780688BBF08951F920F920FB6BB
:100110000F9211242F933F934F935F936F937F938D
:100120008F939F93AF93BF93EF93FF9381E080935F
:10013000CC038091CC031F928F9384E191E09F9335
:100140008F930E9419020F900F900F900F90FF91C4
:10015000EF91BF91AF919F918F917F916F915F913F
:100160004F913F912F910F900FBE0F901F901895B8
:100170008FE190E00E94C10186E091E09093D0036E
:100180008093CF030E9465000E9470000E947B0054
:100190000E9477000E94B20180E40E947B0180E40B
:1001A0000E947B012AE030E005C00197F1F7215061
:1001B0003109A9F380E395E7F8CF1F93CF93DF933D
:1001C000182FD62FC42F0E94AE0185E00E94AA01ED
:1001D000812F0E94AA018D2F0E94AA018C2F0E94BC
:1001E000AA010E94B001DF91CF911F910895482F7D
:1001F00060EE8FE00E94DD0008950E94AE0180EC69
:100200000E94AA010E94B0010895CF930E94AE01FE
:1002100080EA0E94AA010E94A601C82F0E94B00194
:100220008C2FCF910895CF93C82F0E94AE0183E009
:100230000E94AA018C2F0E94AA010E94A601C82F29
:100240000E94B0018C2FCF910895CF9384E493E066
:100250000E942F028EE00E9413011F921F92807E47
:100260001F928F931F921F9281E593E09F938F932C
:100270000E9419020E940501C82F8FE00E941301FD
:100280001F928F931F92CF938DE793E09F938F934D
:100290000E9419028DB79EB70E960FB6F8949EBFB6
:1002A0000FBE8DBFCF910895CF93DF93D82FC62F68
:1002B0000E94AE0182E00E94AA018D2F0E94AA0135
:1002C0008C2F0E94AA010E94B0018D2F0E94130161
:1002D0001F928F931F92CF938EE993E09F938F93FA
:1002E0000E9419020F900F900F900F900F900F9097
:1002F000DF91CF910895CF93C82F0E94B2010E9441
:10030000FD002AE030E005C00197F1F721503109E6
:1003100019F080E395E7F8CF63E08BE20E94540187
:1003200040E160E18FE00E94DD008C2F0E94F70029
:100330008EE00E941301807EC81731F084EB93E0B9
:100340000E942F020E942501CF91089581E08FB96C
:100350008FB108958FB9779BFECF0895C498089503
:10036000C49A089580EB87BB81E58DB90E94B001E6
:1003700008955D9BFECF8CB908955F9BFECF8CB135
:10038000089590BD89B988E18AB98EE880BD6DEB8A
:1003900071E089EB91E00E94CE0108950F931F93C5
:1003A000CF93DF93009731F46115710519F480E064
:1003B00090E03AC08B01EC016EE070E081E090E0EB
:1003C0000E944004FC01892B91F380E8838301158E
:1003D000110571F01387028781E883838091CD0333
:1003E0009091CE03892B21F4F093CE03E093CD03BB
:1003F0002097C9F0D187C0878381826083838091F1
:10040000CF039091D003892B71F4F093D003E09344
:10041000CF038091D1039091D203892B21F4F093E3
:10042000D203E093D103CF01DF91CF911F910F91C0
:100430000895A0E0B0E0EFE1F2E00C944406AE01D4
:100440004B5F5F4FFA0161917191AF018091CF03D2
:100450009091D0030E945F02E2E00C9460060F933B
:100460001F93CF93DF93E091CF03F091D0032381CB
:1004700021FF1BC08C01D0E0C0E0F80181918F0109
:100480006091CF037091D003DB011896ED91FC9140
:100490001997882331F00995892B79F3DFEFCFEF96
:1004A000ECCF8AE00995892B19F08FEF9FEF02C0FE
:1004B0008D2F9C2FDF91CF911F910F910895ABE06D
:1004C000B0E0E5E6F2E00C9434066C017B018A01B1
:1004D000FC0117821682838181FFCCC1CE01019677
:1004E0003C01F6019381F70193FD859193FF819182
:1004F0007F01882309F4BAC1853239F493FD8591CF
:1005000093FF81917F01853229F4B60190E00E942A
:100510009A05E7CF912C212C312CFFE1F315D8F06F
:100520008B3279F038F4803279F08332A1F4232DC4
:1005300020611DC08D3261F0803369F4232D21606C
:1005400016C0832D8260382EE32DE4603E2E2AC033
:10055000F32DF8601DC037FC2DC020ED280F2A3088
:1005600040F08E32B9F436FC81C1232D2064322E46
:1005700019C036FE06C08AE0989E200D1124922EE6
:1005800011C0EAE02E9E200D1124222EF32DF062E0
:100590003F2E08C08C3621F4832D8068382E02C08F
:1005A000883641F4F70193FD859193FF81917F0196
:1005B0008111B3CF982F9F7D9554933028F40C5F11
:1005C0001F4F9FE399830DC0833631F0833771F05D
:1005D000833509F059C021C0F801808189830E5FFD
:1005E0001F4F88248394912C530113C02801F2E0FB
:1005F0004F0E511CF801A080B18036FE03C0692D5A
:1006000070E002C06FEF7FEFC5010E948F054C01C3
:100610008201F32DFF773F2E16C0280122E0420E03
:10062000511CF801A080B18036FE03C0692D70E036
:1006300002C06FEF7FEFC5010E947D054C01F32DD5
:10064000F0683F2E820133FC1BC0822D90E088169B
:100650009906B0F4B60180E290E00E949A052A94CF
:10066000F4CFF50137FC859137FE81915F01B6012A
:1006700090E00E949A0521102A9421E0821A9108A4
:100680008114910471F7E8C0843611F0893641F580
:10069000F80137FE07C060817181828193810C5F10
:1006A0001F4F08C060817181072E000C880B990BC9
:1006B0000E5F1F4FF32DFF763F2E97FF09C09095D9
:1006C0008095709561957F4F8F4F9F4FF0683F2EBB
:1006D0002AE030E0A3010E94D605882E861845C086
:1006E000853731F4232D2F7EB22E2AE030E025C04D
:1006F000932D997FB92E8F36C1F018F4883579F093
:10070000B5C0803719F0883721F0B0C0E92FE0611B
:10071000BE2EB4FE0DC0FB2DF460BF2E09C034FE0A
:100720000AC0292F2660B22E06C028E030E005C09E
:1007300020E130E002C020E132E0F801B7FE07C05E
:1007400060817181828193810C5F1F4F06C060813F
:10075000718180E090E00E5F1F4FA3010E94D605DB
:10076000882E8618FB2DFF773F2E36FE0DC0232DD9
:100770002E7FA22E891458F434FE0BC032FC09C01F
:10078000832D8E7EA82E05C0B82CA32C03C0B82CB8
:1007900001C0B92CA4FE0FC0FE01E80DF11D80813F
:1007A000803321F49A2D997EA92E09C0A2FE06C09D
:1007B000B394B39404C08A2D867809F0B394A3FC53
:1007C00011C0A0FE06C0B21488F4280C922C9B180D
:1007D0000EC0B21460F4B60180E290E00E949A0567
:1007E000B394F7CFB21418F42B1802C0982C212C14
:1007F000A4FE10C0B60180E390E00E949A05A2FE1C
:1008000017C0A1FC03C088E790E002C088E590E033
:10081000B6010CC08A2D867859F0A1FE02C08BE289
:1008200001C080E2A7FC8DE2B60190E00E949A052B
:10083000891438F4B60180E390E00E949A059A94F6
:10084000F7CF8A94F301E80DF11D8081B60190E0A5
:100850000E949A058110F5CF222009F442CEB601FC
:1008600080E290E00E949A052A94F6CFF6018681F4
:10087000978102C08FEF9FEF2B96E2E10C94500618
:100880000F931F93CF93DF93869F8001879F100D57
:10089000969F100D1124C8010E945C04EC01009782
:1008A00029F0A80160E070E00E948805CE01DF9188
:1008B000CF911F910F9108950F931F93CF93DF93C3
:1008C0008230910510F482E090E0E091D503F09140
:1008D000D60320E030E0A0E0B0E0309719F140818D
:1008E00051810281138148175907C8F08417950771
:1008F00069F4109731F012960C93129713961C938B
:1009000027C00093D5031093D60322C021153105CB
:1009100019F04217530718F49A01BD01EF01DF01E6
:10092000F801DBCF21153105F9F0281B390B2430F4
:10093000310580F48A819B816115710521F0FB01ED
:100940009383828304C09093D6038093D503FE01E2
:10095000329644C0FE01E20FF31F8193919322501F
:100960003109398328833AC02091D3033091D403CD
:10097000232B41F420910201309103013093D403E1
:100980002093D303209100013091010121153105FD
:1009900041F42DB73EB74091040150910501241B4D
:1009A000350BE091D303F091D403E217F307A0F4E1
:1009B0002E1B3F0B2817390778F0AC014E5F5F4FB5
:1009C0002417350748F04E0F5F1F5093D403409310
:1009D000D3038193919302C0E0E0F0E0CF01DF9177
:1009E000CF911F910F910895CF93DF93009709F452
:1009F00081C0FC01329713821282A091D503B0917D
:100A0000D603109781F420813181820F931F2091AA
:100A1000D3033091D4032817390751F5F093D40349
:100A2000E093D30367C0ED0120E030E0CE17DF078D
:100A300040F44A815B819E0141155105F1F0EA01C4
:100A4000F5CFD383C28340815181840F951FC8178E
:100A5000D90759F488819981840F951F0296918353
:100A600080838A819B81938382832115310529F4B8
:100A7000F093D603E093D5033DC0E901FB83EA83FD
:100A800049915991C40FD51FEC17FD0761F480817E
:100A90009181840F951F0296E90199838883828151
:100AA00093819B838A83E0E0F0E012968D919C9184
:100AB0001397009719F0FD01DC01F7CF8D919C9100
:100AC00011979D012E5F3F4F820F931F2091D303FB
:100AD0003091D4032817390769F4309729F410921C
:100AE000D6031092D50302C013821282B093D403AE
:100AF000A093D303DF91CF910895FC01059061503D
:100B000070400110D8F7809590958E0F9F1F089523
:100B1000DC0101C06D9341505040E0F70895FC01A5
:100B20006150704001900110D8F7809590958E0F1C
:100B30009F1F08950F931F93CF93DF93FB01238192
:100B400021FD03C08FEF9FEF2CC022FF16C046810E
:100B50005781248135814217530744F4A081B18124
:100B60009D012F5F3F4F318320838C9326813781F6
:100B70002F5F3F4F3783268314C08B01EC01FB01AD
:100B80000084F185E02D0995892BE1F6D8011696B0
:100B90008D919C911797019617969C938E9316971B
:100BA000CE01DF91CF911F910F910895FA01AA27ED
:100BB000283051F1203181F1E8946F936E7F6E5FA0
:100BC0007F4F8F4F9F4FAF4FB1E03ED0B4E03CD04E
:100BD000670F781F891F9A1FA11D680F791F8A1F31
:100BE000911DA11D6A0F711D811D911DA11D20D098
:100BF00009F468943F912AE0269F11243019305D52
:100C00003193DEF6CF010895462F4770405D419342
:100C1000B3E00FD0C9F7F6CF462F4F70405D4A338F
:100C200018F0495D31FD4052419302D0A9F7EACF57
:100C3000B4E0A6959795879577956795BA95C9F786
:100C400000976105710508959B01AC010A2E069479
:100C50005795479537952795BA95C9F7620F731F32
:100C6000841F951FA01D08952F923F924F925F926F
:100C70006F927F928F929F92AF92BF92CF92DF92AC
:100C8000EF92FF920F931F93CF93DF93CDB7DEB711
:100C9000CA1BDB0B0FB6F894DEBF0FBECDBF0994A5
:100CA0002A88398848885F846E847D848C849B84FC
:100CB000AA84B984C884DF80EE80FD800C811B810A
:100CC000AA81B981CE0FD11D0FB6F894DEBF0FBE39
:0A0CD000CDBFED010895F894FFCFA9
:100CDA000000D703200000000002000000005700B7
:100CEA000000000045787465726E616C20696E744C
:100CFA0065727275707420726563656976656420C1
:100D0A006F6E20494E54313B20666C6167207365D3
:100D1A007420746F202564200A0053746172746908
:100D2A006E67205352414D20746573742E2E2E0D1A
:100D3A000057726974652070686173652065727204
:100D4A006F723A206578745F72616D5B2534645DF9
:100D5A00203D2025303258202873686F756C642036
:100D6A0062652025303258290D0A0052657472696D
:100D7A006576616C207068617365206572726F7246
:100D8A003A206578745F72616D5B2534645D203D3D
:100D9A002025303258202873686F756C642062658C
:100DAA002025303258290D0A005352414D207465CE
:100DBA00737420636F6D706C6574656420776974F1
:100DCA0068200D0A253464206572726F7273206977
:100DDA006E20777269746520706861736520616E30
:100DEA0064200D0A253464206572726F727320695B
:100DFA006E2072657472696576616C2070686173C1
:100E0A00650D0A0D0A00417474656D7074696E6728
:100E1A0020746F2073656E64206D657373616765F6
:100E2A00206F7665722043414E3A2000556E61620A
:100E3A006C6520746F2073656E64002E2E73656E68
:100E4A00742100436865636B696E672043414E49AC
:100E5A004E544620727820666C6167732E2E0049C4
:100E6A004E5446733A2025640A004D736720666C17
:100E7A00616720666F722052583020646973636F0D
:100E8A007665726564004D73672064617461206CD5
:100E9A00656E6774682039202D20696E76616C69E9
:100EAA0064206D6573736167652052583021004D67
:100EBA0065737361676520666C616720666F72206F
:100ECA0052583120646973636F7665726564004DA8
:100EDA0073672064617461206C656E677468203979
:100EEA00202D20696E76616C6964206D657373616B
:100EFA0067652052583121004E6F206D657373610A
:100F0A00676520666C61677320646973636F7665D1
:100F1A0072656400446961676E6F737469782E2E16
:100F2A000043414E535441543A20307825303258C8
:100F3A00204D4F44453A2030782530315820464CD0
:100F4A004147533A203078253031580A00524453E9
:100F5A005441543A203078253032582043414E4388
:100F6A0054524C3A203078253032580A0A005772C7
:100F7A00697474656E3A20256420526561643A206A
:100F8A0025640A004D4350204572726F723A204917
:0C0F9A006E6974206661696C656421005A
:00000001FF
