:100000000C9438000C9455000C94A0000C945500EE
:100010000C9455000C9455000C9455000C9455000C
:100020000C9455000C9455000C9455000C945500FC
:100030000C9455000C9455000C9455000C945500EC
:100040000C9455000C9455000C9455000C945500DC
:100050000C9455000C9455000C9455000C945500CC
:100060000C9455000C9455000C9455000C945500BC
:1000700011241FBECFEFD4E0DEBFCDBF14E0A0E05F
:10008000B1E0EAEDFDE002C005900D92A633B107A4
:10009000D9F724E0A6E3B4E001C01D92A134B20771
:1000A000E1F70E9469010C94EB060C940000CF93D9
:1000B000C82F8A3019F48DE00E9457005D9BFECF57
:1000C000CCB980E090E0CF91089585B7806885BF76
:1000D00080B7806280BF84B38FEF84BB15BA089568
:1000E0008E9A969AB89AB99887B387BB089583B7C2
:1000F000896183BF08950E94320285B7886085BFF9
:1001000085B78B7F85BF78948BB780688BBF089548
:100110008FE190E00E94410286E091E090933A04E2
:10012000809339040E9465000E9470000E947B0049
:100130000E9477000E94320280E40E94F901089533
:100140001F920F920FB60F9211242F933F934F934C
:100150005F936F937F938F939F93AF93BF93EF932F
:10016000FF9381E080933604809136041F928F9331
:1001700084E191E09F938F930E9499020F900F90DA
:100180000F900F90FF91EF91BF91AF919F918F9141
:100190007F916F915F914F913F912F910F900FBE83
:1001A0000F901F9018955F926F927F928F929F92FF
:1001B000AF92BF92CF92DF92EF92FF920F931F9375
:1001C000CF93DF9300D0CDB7DEB781E0898382E0A3
:1001D0008A838E010F5F1F4F4E0183E0880E911CB2
:1001E0000F2EF6E1AF2EF3E0BF2EF02D0F2EFFE223
:1001F000CF2EF3E0DF2EF02D0F2EF7E4EF2EF3E0FD
:10020000FF2EF02D0F2EF2E66F2EF3E07F2EF02D55
:1002100060E08CE20E94E5010E942E0282E00E94D2
:100220002A028BE20E942A02F80151908F01852D4B
:100230000E942A021F925F92BF92AF920E9499027F
:100240000E9424021F928F93DF92CF920E94990204
:100250000E9430020E942E0283E00E942A028BE25A
:100260000E942A020E9424021F928F93FF92EF9213
:100270000E9499020E9430020E942E0283E00E9496
:100280002A028CE20E942A020E9424021F928F936B
:100290007F926F920E9499020E9430020FB6F894EA
:1002A000DEBF0FBECDBF0815190509F0B1CF0F9005
:1002B0000F90DF91CF911F910F91FF90EF90DF9002
:1002C000CF90BF90AF909F908F907F906F905F90F6
:1002D00008950E9488000E94D300FDCF1F93CF9302
:1002E000DF93182FD62FC42F0E942E0285E00E9484
:1002F0002A02812F0E942A028D2F0E942A028C2F0F
:100300000E942A020E943002DF91CF911F9108952E
:10031000482F60EE8FE00E946E0108950E942E0229
:1003200080EC0E942A020E9430020895CF930E941E
:100330002E0280EA0E942A020E942402C82F0E94F4
:1003400030028C2FCF910895CF93C82F0E942E0298
:1003500083E00E942A028C2F0E942A020E9424021B
:10036000C82F0E9430028C2FCF910895CF9383EC39
:1003700093E00E94AF028EE00E94A4011F921F92A0
:10038000807E1F928F931F921F9280ED93E09F9328
:100390008F930E9499020E949601C82F8FE00E94BD
:1003A000A4011F928F931F92CF938CEF93E09F93A2
:1003B0008F930E9499028DB79EB70E960FB6F89450
:1003C0009EBF0FBE8DBFCF910895CF93DF93D82FDF
:1003D000C62F0E942E0282E00E942A028D2F0E94C8
:1003E0002A028C2F0E942A020E943002DF91CF91B4
:1003F0000895CF93C82F0E9432020E948E012AE0F6
:1004000030E005C00197F1F72150310919F080E380
:1004100095E7F8CF63E08BE20E94E50140E160E1FF
:100420008FE00E946E018C2F0E9488018EE00E9456
:10043000A401807EC81731F08DE194E00E94AF02E4
:100440000E94B601CF9108958AEA8FB9779BFECFBB
:100450008FB108958FB9779BFECF0895C498089502
:10046000C49A089580EB87BB81E58DB90E94300264
:1004700008955D9BFECF8CB908955F9BFECF8CB134
:10048000089590BD89B988E18AB98EE880BD6DE391
:1004900072E089E392E00E944E0208950F931F9349
:1004A000CF93DF93009731F46115710519F480E063
:1004B00090E03AC08B01EC016EE070E081E090E0EA
:1004C0000E94C004FC01892B91F380E8838301150D
:1004D000110571F01387028781E8838380913704C7
:1004E00090913804892B21F4F0933804E093370479
:1004F0002097C9F0D187C0878381826083838091F0
:10050000390490913A04892B71F4F0933A04E09302
:10051000390480913B0490913C04892B21F4F093A1
:100520003C04E0933B04CF01DF91CF911F910F91E9
:100530000895A0E0B0E0EFE9F2E00C94C406AE014B
:100540004B5F5F4FFA0161917191AF018091390466
:1005500090913A040E94DF02E2E00C94E0060F93CF
:100560001F93CF93DF93E0913904F0913A042381F4
:1005700021FF1BC08C01D0E0C0E0F80181918F0108
:100580006091390470913A04DB011896ED91FC9169
:100590001997882331F00995892B79F3DFEFCFEF95
:1005A000ECCF8AE00995892B19F08FEF9FEF02C0FD
:1005B0008D2F9C2FDF91CF911F910F910895ABE06C
:1005C000B0E0E5EEF2E00C94B4066C017B018A0128
:1005D000FC0117821682838181FFCCC1CE01019676
:1005E0003C01F6019381F70193FD859193FF819181
:1005F0007F01882309F4BAC1853239F493FD8591CE
:1006000093FF81917F01853229F4B60190E00E9429
:100610001A06E7CF912C212C312CFFE1F315D8F0ED
:100620008B3279F038F4803279F08332A1F4232DC3
:1006300020611DC08D3261F0803369F4232D21606B
:1006400016C0832D8260382EE32DE4603E2E2AC032
:10065000F32DF8601DC037FC2DC020ED280F2A3087
:1006600040F08E32B9F436FC81C1232D2064322E45
:1006700019C036FE06C08AE0989E200D1124922EE5
:1006800011C0EAE02E9E200D1124222EF32DF062DF
:100690003F2E08C08C3621F4832D8068382E02C08E
:1006A000883641F4F70193FD859193FF81917F0195
:1006B0008111B3CF982F9F7D9554933028F40C5F10
:1006C0001F4F9FE399830DC0833631F0833771F05C
:1006D000833509F059C021C0F801808189830E5FFC
:1006E0001F4F88248394912C530113C02801F2E0FA
:1006F0004F0E511CF801A080B18036FE03C0692D59
:1007000070E002C06FEF7FEFC5010E940F064C0141
:100710008201F32DFF773F2E16C0280122E0420E02
:10072000511CF801A080B18036FE03C0692D70E035
:1007300002C06FEF7FEFC5010E94FD054C01F32D54
:10074000F0683F2E820133FC1BC0822D90E088169A
:100750009906B0F4B60180E290E00E941A062A944D
:10076000F4CFF50137FC859137FE81915F01B60129
:1007700090E00E941A0621102A9421E0821A910822
:100780008114910471F7E8C0843611F0893641F57F
:10079000F80137FE07C060817181828193810C5F0F
:1007A0001F4F08C060817181072E000C880B990BC8
:1007B0000E5F1F4FF32DFF763F2E97FF09C09095D8
:1007C0008095709561957F4F8F4F9F4FF0683F2EBA
:1007D0002AE030E0A3010E945606882E861845C004
:1007E000853731F4232D2F7EB22E2AE030E025C04C
:1007F000932D997FB92E8F36C1F018F4883579F092
:10080000B5C0803719F0883721F0B0C0E92FE0611A
:10081000BE2EB4FE0DC0FB2DF460BF2E09C034FE09
:100820000AC0292F2660B22E06C028E030E005C09D
:1008300020E130E002C020E132E0F801B7FE07C05D
:1008400060817181828193810C5F1F4F06C060813E
:10085000718180E090E00E5F1F4FA3010E94560659
:10086000882E8618FB2DFF773F2E36FE0DC0232DD8
:100870002E7FA22E891458F434FE0BC032FC09C01E
:10088000832D8E7EA82E05C0B82CA32C03C0B82CB7
:1008900001C0B92CA4FE0FC0FE01E80DF11D80813E
:1008A000803321F49A2D997EA92E09C0A2FE06C09C
:1008B000B394B39404C08A2D867809F0B394A3FC52
:1008C00011C0A0FE06C0B21488F4280C922C9B180C
:1008D0000EC0B21460F4B60180E290E00E941A06E5
:1008E000B394F7CFB21418F42B1802C0982C212C13
:1008F000A4FE10C0B60180E390E00E941A06A2FE9A
:1009000017C0A1FC03C088E790E002C088E590E032
:10091000B6010CC08A2D867859F0A1FE02C08BE288
:1009200001C080E2A7FC8DE2B60190E00E941A06A9
:10093000891438F4B60180E390E00E941A069A9474
:10094000F7CF8A94F301E80DF11D8081B60190E0A4
:100950000E941A068110F5CF222009F442CEB6017A
:1009600080E290E00E941A062A94F6CFF601868172
:10097000978102C08FEF9FEF2B96E2E10C94D00697
:100980000F931F93CF93DF93869F8001879F100D56
:10099000969F100D1124C8010E94DC04EC01009701
:1009A00029F0A80160E070E00E940806CE01DF9106
:1009B000CF911F910F9108950F931F93CF93DF93C2
:1009C0008230910510F482E090E0E0913F04F091D4
:1009D000400420E030E0A0E0B0E0309719F1408121
:1009E00051810281138148175907C8F08417950770
:1009F00069F4109731F012960C93129713961C938A
:100A000027C000933F041093400422C021153105F4
:100A100019F04217530718F49A01BD01EF01DF01E5
:100A2000F801DBCF21153105F9F0281B390B2430F3
:100A3000310580F48A819B816115710521F0FB01EC
:100A40009383828304C09093400480933F04FE010B
:100A5000329644C0FE01E20FF31F8193919322501E
:100A60003109398328833AC020913D0430913E04F6
:100A7000232B41F4209102013091030130933E0475
:100A800020933D0420910001309101012115310591
:100A900041F42DB73EB74091040150910501241B4C
:100AA000350BE0913D04F0913E04E217F307A0F40A
:100AB0002E1B3F0B2817390778F0AC014E5F5F4FB4
:100AC0002417350748F04E0F5F1F50933E044093A4
:100AD0003D048193919302C0E0E0F0E0CF01DF910B
:100AE000CF911F910F910895CF93DF93009709F451
:100AF00081C0FC01329713821282A0913F04B09111
:100B00004004109781F420813181820F931F20913E
:100B10003D0430913E042817390751F5F0933E0407
:100B2000E0933D0467C0ED0120E030E0CE17DF0721
:100B300040F44A815B819E0141155105F1F0EA01C3
:100B4000F5CFD383C28340815181840F951FC8178D
:100B5000D90759F488819981840F951F0296918352
:100B600080838A819B81938382832115310529F4B7
:100B7000F0934004E0933F043DC0E901FB83EA8326
:100B800049915991C40FD51FEC17FD0761F480817D
:100B90009181840F951F0296E90199838883828150
:100BA00093819B838A83E0E0F0E012968D919C9183
:100BB0001397009719F0FD01DC01F7CF8D919C91FF
:100BC00011979D012E5F3F4F820F931F20913D048F
:100BD00030913E042817390769F4309729F41092B0
:100BE000400410923F0402C013821282B0933E046C
:100BF000A0933D04DF91CF910895FC0105906150D1
:100C000070400110D8F7809590958E0F9F1F089522
:100C1000DC0101C06D9341505040E0F70895FC01A4
:100C20006150704001900110D8F7809590958E0F1B
:100C30009F1F08950F931F93CF93DF93FB01238191
:100C400021FD03C08FEF9FEF2CC022FF16C046810D
:100C50005781248135814217530744F4A081B18123
:100C60009D012F5F3F4F318320838C9326813781F5
:100C70002F5F3F4F3783268314C08B01EC01FB01AC
:100C80000084F185E02D0995892BE1F6D8011696AF
:100C90008D919C911797019617969C938E9316971A
:100CA000CE01DF91CF911F910F910895FA01AA27EC
:100CB000283051F1203181F1E8946F936E7F6E5F9F
:100CC0007F4F8F4F9F4FAF4FB1E03ED0B4E03CD04D
:100CD000670F781F891F9A1FA11D680F791F8A1F30
:100CE000911DA11D6A0F711D811D911DA11D20D097
:100CF00009F468943F912AE0269F11243019305D51
:100D00003193DEF6CF010895462F4770405D419341
:100D1000B3E00FD0C9F7F6CF462F4F70405D4A338E
:100D200018F0495D31FD4052419302D0A9F7EACF56
:100D3000B4E0A6959795879577956795BA95C9F785
:100D400000976105710508959B01AC010A2E069478
:100D50005795479537952795BA95C9F7620F731F31
:100D6000841F951FA01D08952F923F924F925F926E
:100D70006F927F928F929F92AF92BF92CF92DF92AB
:100D8000EF92FF920F931F93CF93DF93CDB7DEB710
:100D9000CA1BDB0B0FB6F894DEBF0FBECDBF0994A4
:100DA0002A88398848885F846E847D848C849B84FB
:100DB000AA84B984C884DF80EE80FD800C811B8109
:100DC000AA81B981CE0FD11D0FB6F894DEBF0FBE38
:0A0DD000CDBFED010895F894FFCFA8
:100DDA00000041042000000000020000000057004B
:100DEA000000000045787465726E616C20696E744B
:100DFA0065727275707420726563656976656420C0
:100E0A006F6E20494E54313B20666C6167207365D2
:100E1A007420746F202564200A0053746172746907
:100E2A006E67205352414D20746573742E2E2E0D19
:100E3A000057726974652070686173652065727203
:100E4A006F723A206578745F72616D5B2534645DF8
:100E5A00203D2025303258202873686F756C642035
:100E6A0062652025303258290D0A0052657472696C
:100E7A006576616C207068617365206572726F7245
:100E8A003A206578745F72616D5B2534645D203D3C
:100E9A002025303258202873686F756C642062658B
:100EAA002025303258290D0A005352414D207465CD
:100EBA00737420636F6D706C6574656420776974F0
:100ECA0068200D0A253464206572726F7273206976
:100EDA006E20777269746520706861736520616E2F
:100EEA0064200D0A253464206572726F727320695A
:100EFA006E2072657472696576616C2070686173C0
:100F0A00650D0A0D0A0053656E64696E67206D658A
:100F1A007373616765206F7665722043414E3A208C
:100F2A0000556E61626C6520746F2073656E640093
:100F3A002E2E73656E742100436865636B696E6754
:100F4A002043414E494E54462E2E00494E54467374
:100F5A003A2025640A004D736720666C6167206633
:100F6A006F7220525830210A004D736720646174F1
:100F7A0061206C656E6774682039202D20696E7651
:100F8A00616C6964206D65737361676520525830BE
:100F9A0021004D65737361676520666C6167206621
:100FAA006F7220525831210A004D736720646174B0
:100FBA0061206C656E6774682039202D20696E7611
:100FCA00616C6964206D657373616765205258317D
:100FDA0021004E6F206D65737361676520666C61D1
:100FEA0067732E2E0A0057726974696E672043412F
:100FFA004E494E54453A203078253032580A00522C
:10100A006561642066726F6D20535044523A2030F5
:10101A0078253032580A00526561642066726F6D15
:10102A002043414E494E54453A20307825303258B3
:10103A000A00526561642066726F6D2043414E4911
:10104A004E54463A203078253032580A0A00496E02
:10105A0069742043414E494E54453A203078253030
:10106A0032580A00446573697265642043414E49E7
:10107A004E54453A203078253032580A004E65776A
:10108A002043414E494E54453A2030782530325853
:10109A000A0A00446961676E6F737469782E2E00BC
:1010AA0043414E535441543A203078253032582027
:1010BA004D4F44453A2030782530315820464C412E
:1010CA0047533A203078253031580A005244535455
:1010DA0041543A203078253032582043414E435407
:1010EA00524C3A203078253032580A0A004D435083
:1010FA00204572726F723A20496E6974206661697E
:06110A006C656421000089
:00000001FF
