:100000000C9438000C9455000C943C020C94550050
:100010000C9455000C9455000C9455000C9455000C
:100020000C9455000C9455000C9455000C945500FC
:100030000C9455000C9455000C9455000C945500EC
:100040000C9455000C9455000C9455000C945500DC
:100050000C9455000C9455000C9455000C945500CC
:100060000C9455000C9455000C9455000C945500BC
:1000700011241FBECFEFD4E0DEBFCDBF14E0A0E05F
:10008000B1E0E0EBF4E102C005900D92A234B107BB
:10009000D9F724E0A2E4B4E001C01D92AE34B20767
:1000A000E1F70E94AA030C94560A0C9400008330D6
:1000B00038F088E191E00E94B70581E090E0089572
:1000C0008295807F805D0E94E90321E090E083FFBC
:1000D00020E0822F0895CF92DF92EF92FF921F933C
:1000E000CF93DF93CDB7DEB72B970FB6F894DEBF73
:1000F0000FBECDBF6C0110E0812F0E945700892BED
:1001000019F4109342040BC0812F0E945700892BD1
:1001100019F0123008F0A1C01F5F133069F7F60123
:100120006081809142048295807F8F5C0E942A04C6
:10013000F6016181809142048295807F8E5C0E94ED
:100140002A04F6016281809142048295807F8B5C53
:100150000E942A04F6014281809142048295807FA8
:10016000B6016D5F7F4F8A5C0E949F0480914204BC
:100170008295807F8F5C0E94E9038983809142048D
:100180008295807F8E5C0E94E9038A83809142047D
:100190008295807F8B5C0E94E9038B838B8188230F
:1001A000C9F010E0E12EF12C80914204212FF0E102
:1001B0008F9F200D1124822F8A5C0E94E903E4E0C6
:1001C000F0E0EC0FFD1FEE0DFF1D80831F5F8B81A4
:1001D000181740F39981F6018081981308C09A811D
:1001E0008181981304C09B818281981721F08DE44E
:1001F00091E00E94B70580914204813061F018F0CF
:10020000823089F018C048E068E080E30E94B303C0
:1002100081E090E024C048E068E080E40E94B303FD
:1002200081E090E01CC048E068E080E50E94B303F4
:1002300081E090E014C048E068E080E30E94B303EE
:1002400048E068E080E40E94B30348E068E080E5AD
:100250000E94B30381E090E002C080E090E02B9622
:100260000FB6F894DEBF0FBECDBFDF91CF911F91C7
:10027000FF90EF90DF90CF900895CF92DF92EF92B2
:10028000FF920F931F93CF93DF93CDB7DEB72B97DA
:100290000FB6F894DEBF0FBECDBF6C0189E08B8333
:1002A0006230A8F01F926F9389E591E09F938F933E
:1002B0000E949A058BE0FE013196D60101900D92C5
:1002C0008A95E1F70F900F900F900F9030C0062F96
:1002D0000295007F81E6800F0E94E903898382E610
:1002E000800F0E94E9038A8385E6800F0E94E9035C
:1002F0008B838B81882399F010E00A59E12EF12C31
:10030000802F810F0E94E903E4E0F0E0EC0FFD1F75
:10031000EE0DFF1D80831F5F8B81181778F38BE034
:10032000FE013196D60101900D928A95E1F7C60142
:100330002B960FB6F894DEBF0FBECDBFDF91CF91E5
:100340001F910F91FF90EF90DF90CF900895DF9273
:10035000EF92FF920F931F93CF93DF937C01FC01E9
:1003600090818181F0E19F9F800D11241F928F93D6
:1003700088E991E09F938F930E949A05F701D280BC
:100380001F92DF9288EA91E09F938F930E949A05D3
:100390008DB79EB708960FB6F8949EBF0FBE8DBF5F
:1003A000DD20A9F0C0E0D0E001EC11E0F701EC0F96
:1003B000FD1F83811F928F931F930F930E949A05B5
:1003C00021960F900F900F900F90CD1578F38AE043
:1003D00090E00E94B005DF91CF911F910F91FF90A7
:1003E000EF90DF900895CF93C82F8A3019F48DE0F5
:1003F0000E94F3015D9BFECFCCB980E090E0CF91ED
:10040000089585B7806885BF80B7806280BF84B358
:100410008FEF84BB15BA08958E9A969AB89AB998B8
:1004200087B387BB089583B7896183BF08950E940E
:10043000D70485B7886085BF85B78B7F85BF7894E3
:100440008BB780688BBF08958FE190E00E94E6042F
:100450008AE091E090934704809346040E94010251
:100460000E940C020E9417020E9413020E94D704ED
:1004700080E40E943E0408951F920F920FB60F92DF
:1004800011242F933F934F935F936F937F938F9399
:100490009F93AF93BF93EF93FF9381E080934304C7
:1004A00085EC91E00E94B705FF91EF91BF91AF916C
:1004B0009F918F917F916F915F914F913F912F917C
:1004C0000F900FBE0F901F901895CF92DF92EF9272
:1004D000FF920F931F93CF93DF938BEE91E00E94D7
:1004E000B7050E943F057C010E944405C12CD12C18
:1004F00000E010E0C2E0D2E00E943F05F601F85EA5
:10050000808320812817A9F099279F938F931F92AA
:100510002F93DF92CF92DF93CF930E949A050F5FC4
:100520001F4F8DB79EB708960FB6F8949EBF0FBEAB
:100530008DBF9FEFC91AD90AC11488E0D806E1F629
:10054000C7010E944405C0E0D0E0E12CF12C0F2E41
:10055000FCE3CF2EF2E0DF2EF02D0E943F05FE01DE
:10056000F85E20812817B1F099279F938F931F92EF
:100570002F93DF93CF93DF92CF920E949A059FEF44
:10058000E91AF90A8DB79EB708960FB6F8949EBF80
:100590000FBE8DBF2196C11598E0D907F1F6FF92E5
:1005A000EF921F930F938AE792E09F938F930E949D
:1005B0009A050F900F900F900F900F900F90DF9172
:1005C000CF911F910F91FF90EF90DF90CF90089502
:1005D0001F93CF93DF93CDB7DEB7A1970FB6F894F3
:1005E000DEBF0FBECDBF80E40E943E048DE0898354
:1005F00089E08A8384E08B838B81882371F080E09B
:1006000094E0980FE4E0F0E0EC0FFD1FE80FF11D1F
:1006100090838F5F9B81891798F387ED92E00E940A
:10062000B705CE0101960E94A7010FC082EF92E0AC
:100630000E94B7052AE030E005C00197F1F721508C
:10064000310919F080E395E7F8CFCE0101960E94B9
:100650006B00892B59F381E093E00E94B7052AE0F3
:1006600030E005C00197F1F72150310919F080E31E
:1006700095E7F8CF80914304813011F41092430440
:100680008CE20E94E903182F1F928F9389E093E078
:100690009F938F930E949A050F900F900F900F9049
:1006A0001370113019F0123001F142C08AE193E069
:1006B0000E94B70560E0CE0147960E943D018BE0A5
:1006C000FE017796DE011C9601900D928A95E1F766
:1006D0008E85893029F48CE293E00E94B7052CC006
:1006E000CE010C960E94A70127C085E593E00E94E9
:1006F000B70561E0CE0147960E943D018BE0FE0107
:100700007796DE011C9601900D928A95E1F78E8511
:10071000893029F48BE693E00E94B7050DC084E987
:1007200093E00E94B705CE010C960E94A70104C079
:100730008FE993E00E94B7058AE090E00E94B0053F
:10074000A1960FB6F894DEBF0FBECDBFDF91CF915B
:100750001F9108950E9424020E9465020E94E802EF
:1007600080E090E008951F93CF93DF93182FD62F4A
:10077000C42F0E94D30485E00E94CF04812F0E94E1
:10078000CF048D2F0E94CF048C2F0E94CF040E9493
:10079000D504DF91CF911F910895482F60EE8FE02F
:1007A0000E94B30308950E94D30480EC0E94CF04FA
:1007B0000E94D5040895CF930E94D30480EA0E943A
:1007C000CF040E94C904C82F0E94D5048C2FCF915A
:1007D0000895CF93C82F0E94D30483E00E94CF04D2
:1007E0008C2F0E94CF040E94C904C82F0E94D504F8
:1007F0008C2FCF910895CF9382EB93E00E94B705A1
:100800008EE00E94E9031F921F92807E1F928F93B9
:100810001F921F928FEB93E09F938F930E949A05F4
:100820000E94DB03C82F8FE00E94E9031F928F9381
:100830001F92CF938BEE93E09F938F930E949A0524
:100840008DB79EB70E960FB6F8949EBF0FBE8DBFA4
:10085000CF910895CF93DF93D82FC62F0E94D30452
:1008600082E00E94CF048D2F0E94CF048C2F0E9423
:10087000CF040E94D504DF91CF910895CF93C82F64
:100880000E94D7040E94D3032AE030E005C00197FC
:10089000F1F72150310919F080E395E7F8CF63E0D3
:1008A0008BE20E942A0440E160E18FE00E94B303E2
:1008B00062EC8AE20E942A0469EC89E20E942A041E
:1008C00062E088E20E942A048AE20E94E9031F9201
:1008D0008F938CE094E09F938F930E949A0589E216
:1008E0000E94E9031F928F9386E194E09F938F9378
:1008F0000E949A0588E20E94E9031F928F9380E28A
:1009000094E09F938F930E949A058C2F0E94CD03B1
:100910008EE00E94E903807E2DB73EB7245F3F4FF3
:100920000FB6F8943EBF0FBE2DBFC81731F08AE254
:1009300094E00E94B7050E94FB03CF910895EF92C7
:10094000FF920F931F93CF93DF93C82F7B01142F38
:100950000E94D30482E00E94CF048C2F0E94CF0417
:10096000112371F0E7011150012F10E00F5F1F4FAD
:100970000E0D1F1D89910E94CF04C017D107D1F71A
:100980000E94D504DF91CF911F910F91FF90EF90BE
:1009900008958AEA8FB9779BFECF8FB108958FB9FA
:1009A000779BFECF0895C4980895C49A089580EB6C
:1009B00087BB81E58DB90E94D50408955D9BFECF6C
:1009C0008CB908955F9BFECF8CB1089590BD89B915
:1009D00088E18AB98EE880BD62EE74E08EED94E025
:1009E0000E944F0508958F929F92AF92BF92CF922F
:1009F000DF92EF92FF92CF93DF93EC0168817981D0
:100A00008A819B81611571058105910521F464E25C
:100A100079ED8BE597E02DE133EF41E050E00E9466
:100A2000BC0949015A019B01AC01A7EAB1E40E944B
:100A3000DB096B017C01ACEEB4EFA50194010E94CF
:100A4000E909DC01CB018C0D9D1DAE1DBF1DB7FF5B
:100A500003C00197A109B04888839983AA83BB8307
:100A60009F77DF91CF91FF90EF90DF90CF90BF9075
:100A7000AF909F908F9008950E94F304089580E0B6
:100A800091E00E94F3040895A0E0B0E0809300019B
:100A900090930101A0930201B093030108950F9375
:100AA0001F93CF93DF93009731F46115710519F40B
:100AB00080E090E03AC08B01EC016EE070E081E0F4
:100AC00090E00E94C807FC01892B91F380E88383A2
:100AD0000115110571F01387028781E883838091E6
:100AE000440490914504892B21F4F0934504E0934C
:100AF00044042097C9F0D187C087838182608383B3
:100B00008091460490914704892B71F4F093470437
:100B1000E09346048091480490914904892B21F484
:100B2000F0934904E0934804CF01DF91CF911F91E6
:100B30000F910895A0E0B0E0E0EAF5E00C94FE0922
:100B4000AE014B5F5F4FFA0161917191AF018091EE
:100B50004604909147040E94E705E2E00C941A0ACB
:100B600060914604709147040E94220908950F93F2
:100B70001F93CF93DF93E0914604F09147042381C4
:100B800021FF1BC08C01D0E0C0E0F80181918F01F2
:100B90006091460470914704DB011896ED91FC9139
:100BA0001997882331F00995892B79F3DFEFCFEF7F
:100BB000ECCF8AE00995892B19F08FEF9FEF02C0E7
:100BC0008D2F9C2FDF91CF911F910F910895ABE056
:100BD000B0E0EDEEF5E00C94EE096C017B018A01CA
:100BE000FC0117821682838181FFCCC1CE01019660
:100BF0003C01F6019381F70193FD859193FF81916B
:100C00007F01882309F4BAC1853239F493FD8591B7
:100C100093FF81917F01853229F4B60190E00E9413
:100C20002209E7CF912C212C312CFFE1F315D8F0CC
:100C30008B3279F038F4803279F08332A1F4232DAD
:100C400020611DC08D3261F0803369F4232D216055
:100C500016C0832D8260382EE32DE4603E2E2AC01C
:100C6000F32DF8601DC037FC2DC020ED280F2A3071
:100C700040F08E32B9F436FC81C1232D2064322E2F
:100C800019C036FE06C08AE0989E200D1124922ECF
:100C900011C0EAE02E9E200D1124222EF32DF062C9
:100CA0003F2E08C08C3621F4832D8068382E02C078
:100CB000883641F4F70193FD859193FF81917F017F
:100CC0008111B3CF982F9F7D9554933028F40C5FFA
:100CD0001F4F9FE399830DC0833631F0833771F046
:100CE000833509F059C021C0F801808189830E5FE6
:100CF0001F4F88248394912C530113C02801F2E0E4
:100D00004F0E511CF801A080B18036FE03C0692D42
:100D100070E002C06FEF7FEFC5010E9417094C0120
:100D20008201F32DFF773F2E16C0280122E0420EEC
:100D3000511CF801A080B18036FE03C0692D70E01F
:100D400002C06FEF7FEFC5010E9405094C01F32D32
:100D5000F0683F2E820133FC1BC0822D90E0881684
:100D60009906B0F4B60180E290E00E9422092A942C
:100D7000F4CFF50137FC859137FE81915F01B60113
:100D800090E00E94220921102A9421E0821A910801
:100D90008114910471F7E8C0843611F0893641F569
:100DA000F80137FE07C060817181828193810C5FF9
:100DB0001F4F08C060817181072E000C880B990BB2
:100DC0000E5F1F4FF32DFF763F2E97FF09C09095C2
:100DD0008095709561957F4F8F4F9F4FF0683F2EA4
:100DE0002AE030E0A3010E945E09882E861845C0E3
:100DF000853731F4232D2F7EB22E2AE030E025C036
:100E0000932D997FB92E8F36C1F018F4883579F07B
:100E1000B5C0803719F0883721F0B0C0E92FE06104
:100E2000BE2EB4FE0DC0FB2DF460BF2E09C034FEF3
:100E30000AC0292F2660B22E06C028E030E005C087
:100E400020E130E002C020E132E0F801B7FE07C047
:100E500060817181828193810C5F1F4F06C0608128
:100E6000718180E090E00E5F1F4FA3010E945E0938
:100E7000882E8618FB2DFF773F2E36FE0DC0232DC2
:100E80002E7FA22E891458F434FE0BC032FC09C008
:100E9000832D8E7EA82E05C0B82CA32C03C0B82CA1
:100EA00001C0B92CA4FE0FC0FE01E80DF11D808128
:100EB000803321F49A2D997EA92E09C0A2FE06C086
:100EC000B394B39404C08A2D867809F0B394A3FC3C
:100ED00011C0A0FE06C0B21488F4280C922C9B18F6
:100EE0000EC0B21460F4B60180E290E00E942209C4
:100EF000B394F7CFB21418F42B1802C0982C212CFD
:100F0000A4FE10C0B60180E390E00E942209A2FE78
:100F100017C0A1FC03C088E790E002C088E590E01C
:100F2000B6010CC08A2D867859F0A1FE02C08BE272
:100F300001C080E2A7FC8DE2B60190E00E94220988
:100F4000891438F4B60180E390E00E9422099A9453
:100F5000F7CF8A94F301E80DF11D8081B60190E08E
:100F60000E9422098110F5CF222009F442CEB60159
:100F700080E290E00E9422092A94F6CFF601868151
:100F8000978102C08FEF9FEF2B96E2E10C940A0A43
:100F90000F931F93CF93DF93869F8001879F100D40
:100FA000969F100D1124C8010E94E407EC010097E0
:100FB00029F0A80160E070E00E941009CE01DF91E5
:100FC000CF911F910F9108950F931F93CF93DF93AC
:100FD0008230910510F482E090E0E0914C04F091B1
:100FE0004D0420E030E0A0E0B0E0309719F14081FE
:100FF00051810281138148175907C8F0841795075A
:1010000069F4109731F012960C93129713961C9373
:1010100027C000934C0410934D0422C021153105C4
:1010200019F04217530718F49A01BD01EF01DF01CF
:10103000F801DBCF21153105F9F0281B390B2430DD
:10104000310580F48A819B816115710521F0FB01D6
:101050009383828304C090934D0480934C04FE01DB
:10106000329644C0FE01E20FF31F81939193225008
:101070003109398328833AC020914A0430914B04C6
:10108000232B41F4209106013091070130934B044A
:1010900020934A0420910401309105012115310566
:1010A00041F42DB73EB74091080150910901241B2E
:1010B000350BE0914A04F0914B04E217F307A0F4DA
:1010C0002E1B3F0B2817390778F0AC014E5F5F4F9E
:1010D0002417350748F04E0F5F1F50934B04409381
:1010E0004A048193919302C0E0E0F0E0CF01DF91E8
:1010F000CF911F910F910895CF93DF93009709F43B
:1011000081C0FC01329713821282A0914C04B091ED
:101110004D04109781F420813181820F931F20911B
:101120004A0430914B042817390751F5F0934B04CA
:10113000E0934A0467C0ED0120E030E0CE17DF07FE
:1011400040F44A815B819E0141155105F1F0EA01AD
:10115000F5CFD383C28340815181840F951FC81777
:10116000D90759F488819981840F951F029691833C
:1011700080838A819B81938382832115310529F4A1
:10118000F0934D04E0934C043DC0E901FB83EA83F6
:1011900049915991C40FD51FEC17FD0761F4808167
:1011A0009181840F951F0296E9019983888382813A
:1011B00093819B838A83E0E0F0E012968D919C916D
:1011C0001397009719F0FD01DC01F7CF8D919C91E9
:1011D00011979D012E5F3F4F820F931F20914A046C
:1011E00030914B042817390769F4309729F410928D
:1011F0004D0410924C0402C013821282B0934B042F
:10120000A0934A04DF91CF910895FC0105906150AD
:1012100070400110D8F7809590958E0F9F1F08950C
:10122000DC0101C06D9341505040E0F70895FC018E
:101230006150704001900110D8F7809590958E0F05
:101240009F1F08950F931F93CF93DF93FB0123817B
:1012500021FD03C08FEF9FEF2CC022FF16C04681F7
:101260005781248135814217530744F4A081B1810D
:101270009D012F5F3F4F318320838C9326813781DF
:101280002F5F3F4F3783268314C08B01EC01FB0196
:101290000084F185E02D0995892BE1F6D801169699
:1012A0008D919C911797019617969C938E93169704
:1012B000CE01DF91CF911F910F910895FA01AA27D6
:1012C000283051F1203181F1E8946F936E7F6E5F89
:1012D0007F4F8F4F9F4FAF4FB1E03ED0B4E03CD037
:1012E000670F781F891F9A1FA11D680F791F8A1F1A
:1012F000911DA11D6A0F711D811D911DA11D20D081
:1013000009F468943F912AE0269F11243019305D3A
:101310003193DEF6CF010895462F4770405D41932B
:10132000B3E00FD0C9F7F6CF462F4F70405D4A3378
:1013300018F0495D31FD4052419302D0A9F7EACF40
:10134000B4E0A6959795879577956795BA95C9F76F
:1013500000976105710508959B01AC010A2E069462
:101360005795479537952795BA95C9F7620F731F1B
:10137000841F951FA01D0895052E97FB1EF4009451
:101380000E94D30957FD07D00E94250A07FC03D00D
:101390004EF40C94D30950954095309521953F4FCC
:1013A0004F4F5F4F089590958095709561957F4F51
:1013B0008F4F9F4F08950E94470AA59F900DB49F9D
:1013C000900DA49F800D911D11240895B7FF0C94DA
:1013D000DB090E94DB09821B930B08952F923F9239
:1013E0004F925F926F927F928F929F92AF92BF9235
:1013F000CF92DF92EF92FF920F931F93CF93DF93E1
:10140000CDB7DEB7CA1BDB0B0FB6F894DEBF0FBE3D
:10141000CDBF09942A88398848885F846E847D848A
:101420008C849B84AA84B984C884DF80EE80FD808C
:101430000C811B81AA81B981CE0FD11D0FB6F89402
:10144000DEBF0FBECDBFED010895A1E21A2EAA1B8B
:10145000BB1BFD010DC0AA1FBB1FEE1FFF1FA21764
:10146000B307E407F50720F0A21BB30BE40BF50B61
:10147000661F771F881F991F1A9469F760957095EA
:10148000809590959B01AC01BD01CF010895A29F6D
:10149000B001B39FC001A39F700D811D1124911D48
:1014A000B29F700D811D1124911D0895F894FFCFF6
:1014B0000100000000004E042000000000020000B7
:1014C0000000F3010000000043414E5F4472697662
:1014D0006572204572726F723A20417474656D7046
:1014E00074656420746F20636865636B20696E7631
:1014F000616C696420747862667221200043414EF9
:101500005F736E645F6572720043414E2045727274
:101510006F723A20526571756573746564207265E7
:1015200061642066726F6D206275666665722074F4
:1015300068617420646F65736E27742065786973C1
:10154000743B202564200A004D6573736167652034
:1015500049443A2025640A004D657373616765202C
:10156000646174612C2025642062797465733A206B
:1015700000256420000A45787465726E616C2069EC
:101580006E746572727570742072656365697665D4
:1015900064206F6E20494E5431210053746172747F
:1015A000696E67205352414D20746573742E2E2E40
:1015B0000D005772697465207068617365206572EB
:1015C000726F723A206578745F72616D5B25346466
:1015D0005D203D2025303258202873686F756C647B
:1015E0002062652025303258290D0A005265747238
:1015F000696576616C207068617365206572726FD1
:10160000723A206578745F72616D5B2534645D2089
:101610003D2025303258202873686F756C64206235
:10162000652025303258290D0A005352414D20744F
:1016300065737420636F6D706C6574656420776981
:101640007468200D0A253464206572726F727320ED
:10165000696E2077726974652070686173652061B6
:101660006E64200D0A253464206572726F727320D7
:10167000696E2072657472696576616C207068614C
:1016800073650D0A0D0A0053656E64696E67206DFF
:10169000657373616765206F7665722043414E3ACA
:1016A0002000556E61626C6520746F2073656E64F6
:1016B000002E2E73656E74210043414E494E5446F0
:1016C0003A203078253032580A004D736720666C16
:1016D000616720666F722052583021004D73672079
:1016E00064617461206C656E6774682039202D20F8
:1016F000696E76616C6964206D65737361676520DE
:1017000052583021004D65737361676520666C61C6
:101710006720666F722052583121004D7367206434
:10172000617461206C656E6774682039202D2069B2
:101730006E76616C6964206D6573736167652052B4
:101740005831210052656365697665643A20004E20
:101750006F206D65737361676520666C6167732EBA
:101760002E00446961676E6F737469782E2E004392
:10177000414E535441543A20307825303258204D50
:101780004F44453A2030782530315820464C414767
:10179000533A203078253031580A0052445354418E
:1017A000543A203078253032582043414E43545229
:1017B0004C3A203078253032580A0A00434E4631E0
:1017C0003A2025640A00434E46323A2025640A0036
:1017D000434E46333A2025640A004D43502045725B
:1017E000726F723A20496E6974206661696C656433
:0217F0002100D6
:00000001FF
