S00D000075736172742E73726563E8
S11300000C9438000C9442000C9442000C9442006E
S11300100C9442000C9442000C9442000C94420054
S11300200C9442000C9442000C9442000C94420044
S11300300C9442000C9442000C9442000C94420034
S11300400C9442000C9442000C9442000C94420024
S11300500C9442000C9442000C9442000C94420014
S11300600C9442000C9442000C9442000C94420004
S113007011241FBECFEFD4E0DEBFCDBF0E945300DA
S11300800C946A000C94000090BD89B988E18AB987
S11300908EE880BD08955D9BFECF8CB908955F9B6B
S11300A0FECF8CB108958FE190E00E94440088E077
S11300B00E944B0028EE33E005C00197F1F7215070
S11300C0310919F080E69AEEF8CF0E944F0080E0E3
S10B00D090E00895F894FFCFBD
S9030000FC
